:020000040800F2
:10000000100D00209D010008C94C00085D3B000850
:10001000F5490008CD020008A161000800000000B9
:10002000000000000000000000000000695300080C
:10003000650600080000000065530008C153000871
:10004000B7010008B7010008B7010008B7010008B0
:10005000B7010008B7010008B7010008B7010008A0
:10006000B7010008B7010008B7010008B701000890
:10007000B7010008B7010008B7010008B701000880
:10008000B7010008B7010008B7010008B701000870
:10009000B7010008B7010008B7010008B701000860
:1000A000A9540008B7010008B7010008B70100080B
:1000B000B9540008C9540008D9540008B701000811
:1000C000B7010008B7010008B7010008B701000830
:1000D000B701000885610008B7010008B7010008F2
:1000E000B7010008B7010008B7010008B701000810
:1000F000B7010008B7010008B7010008B701000800
:10010000B7010008B7010008E9540008B70100086A
:10011000B7010008B7010008B7010008F95400084A
:10012000B7010008B7010008B5040008B7010008CE
:10013000B7010008B7010008B7010008B7010008BF
:10014000B7010008B7010008B7010008B7010008AF
:10015000B7010008B7010008B7010008B70100089F
:10016000B7010008B7010008B7010008B70100088F
:10017000B7010008B7010008B7010008000000003F
:10018000B7010008B7010008DFF80CD000F08CF8C8
:1001900000480047F1650008100D00200648804720
:1001A00006480047FEE7FEE7FEE7FEE7FEE7FEE75C
:1001B000FEE7FEE7FEE7FEE7895400088901000834
:1001C0002DE9F05F0546002092469B46884606468C
:1001D000814640241BE0284641464746224600F01F
:1001E00053F853465A46C01A914110D31146184647
:1001F000224600F03AF82D1A67EB01084F462246D6
:100200000120002100F031F817EB00094E41201EBB
:10021000A4F10104DFDC484631462A464346BDE8E6
:10022000F09F40EA01039B0703D009E008C9121FB1
:1002300008C0042AFAD203E011F8013B00F8013BA0
:10024000521EF9D27047D2B201E000F8012B491ECC
:10025000FBD270470022F6E710B513460A46044663
:100260001946FFF7F0FF204610BD202A04DB203A94
:1002700000FA02F1002070479140C2F1200320FAF9
:1002800003F3194390407047202A04DB203A21FAF7
:1002900002F00021704721FA02F3D040C2F120029F
:1002A0009140084319467047064C074D06E0E06848
:1002B00040F0010394E8070098471034AC42F6D3AD
:1002C000FFF766FFE07E0008007F0008FFE7FEE71B
:1002D00080B58AB0099009980078FF2840F0D08056
:1002E000FFE70998C078002840F0CA80FFE7099826
:1002F0000079002840F0C480FFE709984078F02892
:1003000040F06D80FFE709988078013801460B289E
:10031000089162D80899DFE801F006101D2A3744D9
:10032000484C5054585C03F0B3FD40F60410C2F240
:10033000000000210171417150E01420079003F08A
:1003400031FD40F60410C2F200000121017107994D
:10035000417143E01420069003F00AFD40F60410BA
:10036000C2F20000022101710699417136E01420A9
:10037000059003F02DFD40F60410C2F200000321A9
:1003800001710599417129E01420049003F038FDB2
:1003900040F60410C2F20000042101710499417179
:1003A0001CE0142003F05CFD18E0142003F040FD75
:1003B00014E0142003F0B4FC10E0142003F0C4FC9B
:1003C0000CE0142003F080FC08E0142003F092FC01
:1003D00004E0142003F0E6FC00E052E04FE009984E
:1003E00040780F284AD1FFE7099880780138014604
:1003F0000428039141D80399DFE801F00306093985
:100400003C0005F031FF38E005F05CFF35E040F2DC
:100410007000C2F200000078002814D1FFE740F21B
:100420007000C2F200000121017040F28460C2F24B
:1004300000000021029002F03DFE02990A684FF48C
:10044000A563536312E040F27000C2F20000002185
:10045000017040F28460C2F20000019002F02AFEB6
:1004600001990A6840F24C435363FFE705E005F049
:1004700055FF02E005F064FFFFE7FFE7FFE700E05C
:10048000FFE70AB080BD000080B582B00020ADF863
:10049000040040F60411C2F20001BDF804200A80F5
:1004A000BDF804204A8008714871887103F0F0FC9F
:1004B00002B080BD80B540F2E440C2F2000000F01E
:1004C0002BFA80BD82B001900198007810384AF66E
:1004D000AB21CAF6AA21A0FB0101090900910099EC
:1004E00046F21272C0F60002515C019AD165009981
:1004F000042907D3FFE701980168042262F3090188
:10050000816506E00198016840F2FF329143816500
:10051000FFE70198806D02B07047000086B005903B
:1005200000208DF813000598806A03900598806973
:10053000002823D1FFE70398032802901CD80299D2
:10054000DFE801F0020E0219059890F82F00C007AD
:10055000002804D0FFE701208DF81300FFE70CE02E
:100560000598C06AB0F1C07F04D1FFE701208DF883
:100570001300FFE701E000E0FFE747E0059880692E
:10058000B0F5005F26D1FFE70398032801901FD83C
:100590000199DFE801F00206021201208DF8130034
:1005A00017E0059890F82F00C007002804D0FFE757
:1005B00001208DF81300FFE70BE00598C06AB0F149
:1005C000C07F04D1FFE701208DF81300FFE700E0B2
:1005D000FFE71AE003980328009004D3FFE7009890
:1005E000032804D00FE001208DF813000CE00598DB
:1005F00090F82F00C007002804D0FFE701208DF8F5
:100600001300FFE700E0FFE7FFE7FFE79DF81300B7
:1006100006B0704784B00390029101920093039852
:100620000068016821F4802101600098039909683D
:10063000486003988068402809D1FFE70198039932
:1006400009688860029803990968C86008E0029800
:10065000039909688860019803990968C860FFE7F1
:1006600004B070477047000010B585B040F2C46018
:10067000C2F200000068406A019040F20470C2F2C9
:1006800000000068406A029040F24470C2F200002C
:100690000068406A039040F28470C2F20000006873
:1006A000406A049000208DF80300FFE79DF80300E6
:1006B000032843DCFFE79DF8030040F26001C2F22B
:1006C000000131F910009DF8032040F26803C2F2E6
:1006D000000333F91220801A9DF8032040F2240C05
:1006E000C2F2000C5CF822C00DF1040E5EF822404C
:1006F00000FB0C4040F2500CC2F2000C5CF82220CF
:10070000801A9DF8032040F24004C2F2000444F82D
:1007100022009DF803005EF820204CF820209DF870
:10072000030031F810009DF8031023F81100FFE7D3
:100730009DF8030001308DF80300B7E705B010BD48
:1007400080B58AB040F2C460C2F2000001686FF068
:1007500001020A610990089201F056FE09990A689F
:100760000023536240F20472C2F20002D2F800C0C9
:10077000DDF820E0CCF810E00790104606930592D3
:1007800001F042FE05990A68069B536240F24472EA
:10079000C2F20002D2F800C0DDF820E0CCF810E090
:1007A00004901046039201F02FFE03990A68069BFD
:1007B000536240F28472C2F20002D2F800C0DDF847
:1007C00020E0CCF810E002901046019201F01CFEEF
:1007D00001990A68069B53620AB080BD7047000009
:1007E00080B584B002900298806D019000F0BEFD4B
:1007F0000090029890F8350002280DD0FFE702988B
:1008000080214165FFE70298002180F83410FFE75E
:1008100001208DF80F0058E002980068016821F06F
:100820001601016002980068416921F08001416170
:100830000298006C002805D1FFE70298806C002820
:1008400007D0FFE702980068016821F00801016005
:10085000FFE702980068016821F001010160FFE7ED
:10086000029800680068C007002818D0FFE700F071
:100870007DFD0099401A062810D3FFE70298202139
:100880004165FFE70298002180F83410FFE70298E5
:10089000032180F835108DF80F1016E0E0E702987C
:1008A000C06D3F2101FA00F001998860FFE70298CE
:1008B000002180F83410FFE70298012180F83510FC
:1008C000FFE700208DF80F00FFE79DF80F0004B050
:1008D00080BD000082B00090009890F8350002289A
:1008E00007D0FFE700988021416501208DF80700BF
:1008F0000EE00098052180F8351000980068016826
:1009000021F001010160FFE700208DF80700FFE7FB
:100910009DF8070002B0704780B586B005900020B2
:10092000039040F22000C2F20000006848F2B511C6
:10093000C1F64E31A0FB0101890A02910599896D2A
:1009400001910199096804910499059AD26DD140E9
:10095000090700291BD5FFE70598006800684007D4
:10096000002813D5FFE705980068016821F004010D
:1009700001600598C06D082101FA00F001998860B6
:100980000598416D41F001014165FFE7FFE70498DB
:100990000599C96DC840C007002815D0FFE7059824
:1009A00000684069000600280DD5FFE70598C06D76
:1009B000012101FA00F0019988600598416D41F02C
:1009C00002014165FFE7FFE704980599C96DC8403A
:1009D0004007002815D5FFE70598006800688007E4
:1009E00000280DD5FFE70598C06D042101FA00F03D
:1009F000019988600598416D41F004014165FFE768
:100A0000FFE704980599C96DC840C00600284BD57A
:100A1000FFE70598006800680007002843D5FFE756
:100A20000598C06D102101FA00F0019988600598C1
:100A300000680068400300281CD5FFE7059800689F
:100A40000068000300280AD4FFE70598006C00281E
:100A500004D0FFE70598016C8847FFE709E0059897
:100A6000806C002804D0FFE70598816C8847FFE779
:100A7000FFE717E0059800680068C005002807D464
:100A8000FFE705980068016821F008010160FFE7B1
:100A90000598006C002804D0FFE70598016C884792
:100AA000FFE7FFE7FFE7FFE704980599C96DC84036
:100AB0008006002840F19580FFE7059800680068EF
:100AC000C006002840F18C80FFE70598C06D20210A
:100AD00001FA00F001998860059890F83500052822
:100AE00038D1FFE705980068016821F01601016020
:100AF00005980068416921F0800141610598006C0A
:100B0000002805D1FFE70598806C002807D0FFE793
:100B100005980068016821F008010160FFE7059869
:100B2000C06D3F2101FA00F001998860FFE7059848
:100B3000002180F83410FFE70598012180F8351076
:100B40000598006D002804D0FFE70598016D8847DF
:100B5000FFE781E0059800680068400300281CD585
:100B6000FFE7059800680068000300280AD4FFE743
:100B70000598406C002804D0FFE70598416C884731
:100B8000FFE709E00598C06B002804D0FFE705984F
:100B9000C16B8847FFE7FFE721E005980068006820
:100BA000C005002811D4FFE705980068016821F00E
:100BB00010010160FFE70598002180F83410FFE77D
:100BC0000598012180F83510FFE70598C06B0028D3
:100BD00004D0FFE70598C16B8847FFE7FFE7FFE711
:100BE000FFE70598406D002836D0FFE70598406D77
:100BF000C007002826D0FFE70598052180F83510AA
:100C000005980068016821F001010160FFE7039881
:100C1000013003900299884201D9FFE707E0FFE71E
:100C2000059800680068C0070028F0D1FFE7FFE7DB
:100C30000598002180F83410FFE70598012180F81D
:100C40003510FFE70598C06C002804D0FFE7059831
:100C5000C16C8847FFE7FFE706B080BD80B586B06E
:100C600004900020039000F081FB0290049800287B
:100C700004D1FFE701208DF81700A7E00498406A2F
:100C8000002801D0FFE7FFE7FFE70498002180F884
:100C90003410FFE70498022180F8351004980068AA
:100CA000016821F001010160FFE704980068006815
:100CB000C007002812D0FFE700F058FB0299401A45
:100CC00006280AD3FFE704982021416504980321F0
:100CD00080F835108DF8171078E0E6E70498006882
:100CE00000680390039848F23F01CFF210010840DA
:100CF0000390049841688268C368D0F810C011431B
:100D0000194341EA0C014269114382691143C269E6
:100D10001143006A08430399084303900498406A0A
:100D2000042808D1FFE70498C16A006B08430399BF
:100D300008430390FFE70398049909680860049842
:100D4000006840690390039820F00700039004981E
:100D5000406A0399084303900498406A04281CD110
:100D6000FFE70498806A0399084303900498C06AD7
:100D7000002811D0FFE70498FFF7D0FB00280AD025
:100D8000FFE70498402141650498012180F835105F
:100D90008DF817101AE0FFE7FFE703980499096838
:100DA00048610498FFF78EFB01900498C06D3F21C5
:100DB00001FA00F0019988600498002141650498C7
:100DC000012280F835208DF81710FFE79DF81700F5
:100DD00006B080BD80B588B006900591049203935B
:100DE00000208DF80B000698806D0190FFE70698B3
:100DF00090F83400012804D1FFE702208DF81F008D
:100E000047E00698012180F83410FFE7FFE70698D5
:100E100090F8350001282DD1FFE70698022180F8CF
:100E2000351006980021416506980599049A039BA0
:100E3000FFF7F0FB0698C06D3F2101FA00F0019921
:100E4000886006980068016841F016010160069804
:100E5000006C002807D0FFE706980068016841F0A1
:100E600008010160FFE706980068016841F0010190
:100E7000016009E0FFE70698002180F83410FFE7E1
:100E800002208DF80B00FFE79DF80B008DF81F0086
:100E9000FFE79DF81F0008B080BD000080B584B05A
:100EA000039000F063FA02900398019001980130DA
:100EB000002809D0FFE740F23400C2F200000078B9
:100EC000019908440190FFE7FFE700F04FFA02990B
:100ED000401A0199884201D2FFE7F6E704B080BDCD
:100EE00080B584B00146ADF80E0040F2C470C2F285
:100EF00000000268526AADF80C20BDF80E20ADF873
:100F00000A20019101F062FAFFE740F2C470C2F2D8
:100F100000000068406ABDF80C10401ABDF80A10C5
:100F2000884201D2FFE7F0E740F2C470C2F200004D
:100F3000009001F085FA00990A680023536204B01A
:100F400080BD00008EB00D900C9100200A90099099
:100F500008900B90FFE70B980F2800F2D381FFE772
:100F60000B98012101FA00F00A900C9800680A9988
:100F70000840099009980A99884240F0BE81FFE72D
:100F80000C98406801280FD0FFE70C9840680228B1
:100F90000AD0FFE70C984068112805D0FFE70C98AD
:100FA000406812282FD1FFE70D98806808900B98B1
:100FB0004000032101FA00F0089921EA000008909E
:100FC0000C98C0680B99490088400899084308901C
:100FD00008980D9988600D98406808900B98012139
:100FE00001FA00F0089921EA000008900C98406886
:100FF000C0F300100B99884008990843089008989E
:101000000D994860FFE70D98C06808900B98400064
:10101000032101FA00F0089921EA000008900C98D9
:1010200080680B99490088400899084308900898FF
:101030000D99C8600C984068022805D0FFE70C980D
:101040004068122826D1FFE70D980B996FF0030234
:1010500002EA51010844006A08900B9800F007006A
:1010600080000F2101FA00F0089921EA00000890A1
:101070000C9800690B9901F00701890088400899D4
:101080000843089008980D990B9B02EA53021144FB
:101090000862FFE70D98006808900B984000032154
:1010A00001FA00F0089921EA000008900C984068C5
:1010B00000F003000B994900884008990843089004
:1010C00008980D9908600C98C079C006002840F176
:1010D0001381FFE7FFE70020079043F64400C4F2C6
:1010E0000200016841F480410160006800F4804022
:1010F00007900798FFE70B9820F0030043F60801DC
:10110000C4F20101405808900B9800F003008000E1
:101110000F2101FA00F0089921EA000008900D98CB
:101120000021C4F20201884203D1FFE700200690AB
:101130005EE00D9840F20041C4F20201884203D102
:10114000FFE70120059050E00D9840F60001C4F241
:101150000201884203D1FFE70220049042E00D988B
:1011600040F60041C4F20201884203D1FFE70320A8
:10117000039034E00D9841F20001C4F2020188426C
:1011800003D1FFE70420029026E00D9841F20041D0
:10119000C4F20201884203D1FFE70520019018E064
:1011A0000D9841F60001C4F20201884203D1FFE725
:1011B000062000900AE00D9841F60041C4F20201B9
:1011C0000822884208BF07220092FFE7009801909A
:1011D000FFE701980290FFE702980390FFE703986A
:1011E0000490FFE704980590FFE705980690FFE755
:1011F0000698C0B20B9901F0030189008840089954
:101200000843089008980B9921F0030143F608025F
:10121000C4F20102885043F60040C4F201000068A5
:1012200008900998089921EA000008900C988079A4
:10123000C007002805D0FFE70998089908430890DF
:10124000FFE7089843F60041C4F20101086043F645
:101250000440C4F20100006808900998089921EA46
:10126000000008900C9880798007002805D5FFE7DA
:101270000998089908430890FFE7089843F6044145
:10128000C4F20101086043F60840C4F2010000689E
:1012900008900998089921EA000008900C98807934
:1012A000C006002805D5FFE709980899084308906B
:1012B000FFE7089843F60841C4F20101086043F6CD
:1012C0000C40C4F20100006808900998089921EACE
:1012D000000008900C9880798006002805D5FFE76B
:1012E0000998089908430890FFE7089843F60C41CD
:1012F000C4F201010860FFE7FFE7FFE70B98013048
:101300000B9028E60EB0704782B00A460190ADF807
:10131000021001980069BDF80210084204D0FFE7EE
:1013200001208DF8010003E000208DF80100FFE7A7
:101330009DF8010002B0704782B013468C460190C0
:10134000ADF802108DF801209DF80100002805D0AD
:10135000FFE7BDF802000199886105E0BDF80200D1
:10136000000401998861FFE702B0704740F60C1055
:10137000C2F200000068704740F23400C2F2000080
:10138000007840F60C11C2F200010A6810440860AF
:101390007047000080B582B043F60040C4F20200FE
:1013A000016841F400710160016841F480610160ED
:1013B000016841F480710160032000F097F800207B
:1013C000019000F007F8009000F03EF8019802B09C
:1013D00080BD000080B582B0009040F22000C2F2D3
:1013E0000000006840F23401C2F2000109784FF4B5
:1013F0007A72B2FBF1F1B0FBF1F000F0A7FD00282A
:1014000004D0FFE701208DF8070018E000980F28AE
:101410000DD8FFE700994FF0FF30002200F046F8AA
:10142000009840F23801C2F20001086003E0012098
:101430008DF8070003E000208DF80700FFE79DF816
:10144000070002B080BD000082B0FFE700200190DD
:1014500043F64400C4F20200016841F48041016097
:10146000006800F4804001900198FFE7FFE700204A
:10147000009043F64000C4F20200016841F0805140
:101480000160006800F0805000900098FFE702B013
:101490007047000080B582B001468DF807009DF9C5
:1014A0000700009104F07EFE02B080BD80B588B0D8
:1014B00003468DF81F0006910592002004900393C7
:1014C00004F08AFE04909DF91F000499069A059B7A
:1014D0000290084611461A4603F0F8FB0299019063
:1014E0000846019904F080FE08B080BD80B582B046
:1014F0000190019804F09AFE02B080BD80B584B0DE
:10150000029001910298002804D1FFE701208DF894
:101510000F0021E1019843F60041C4F2020109687D
:1015200001F00F01884212D9FFE7019843F600410C
:10153000C4F202010870086800F00F0001998842A7
:1015400004D0FFE701208DF80F0005E1FFE70298C6
:101550000078800700282AD5FFE702980078400726
:10156000002809D5FFE743F60800C4F2020001682D
:1015700041F4E0510160FFE702980078000700287D
:1015800009D5FFE743F60800C4F20200016841F400
:1015900060410160FFE743F60800C4F20200016801
:1015A00021F0F001029A926811430160FFE702986E
:1015B0000078C00700286ED0FFE702984068012835
:1015C00011D1FFE743F60000C4F20200006800F406
:1015D00000300021B1EB504F04D1FFE701208DF81E
:1015E0000F00B9E02CE002984068022805D0FFE720
:1015F00002984068032811D1FFE743F60000C4F2C7
:101600000200006800F000700021B1EB506F04D1BF
:10161000FFE701208DF80F009EE010E043F6000088
:10162000C4F20200006800F002000021B1EB500F8C
:1016300004D1FFE701208DF80F008DE0FFE7FFE701
:1016400043F60800C4F20200016821F00301029A87
:10165000526811430160FFF789FE0090FFE743F6EF
:101660000800C4F20200006800F00C00029949680A
:10167000B0EB810F0ED0FFE7FFF778FE0099401A1C
:1016800041F28931884204D3FFE703208DF80F002F
:1016900062E0E4E7FFE7019843F60041C4F202018B
:1016A000096801F00F01884212D2FFE7019843F662
:1016B0000041C4F202010870086800F00F000199AF
:1016C000884204D0FFE701208DF80F0044E0FFE7D7
:1016D00002980078400700280CD5FFE743F6080081
:1016E000C4F20200016821F4E051029AD268114369
:1016F0000160FFE702980078000700280DD5FFE79A
:1017000043F60800C4F20200016821F46041029A25
:10171000126941EAC2010160FFE700F04BF843F6AD
:101720000801C4F202010968C9B2090946F2FA6265
:10173000C0F60002515CC84040F22001C2F2000134
:10174000086040F23800C2F200000068FFF742FE75
:1017500000218DF80F10FFE79DF80F0004B080BD49
:1017600040F22000C2F200000068704780B5FFF729
:10177000F7FF43F60801C4F202010968C1F38221B0
:1017800046F20A72C0F60002515CC84080BD0000FB
:1017900080B5FFF7E5FF43F60801C4F202010968CE
:1017A00089B2490B46F20A72C0F60002515CC84089
:1017B00080BD000080B586B00020059004900390A5
:1017C000029043F60800C4F20200006800F00C002A
:1017D00001460028019108D0FFE7019804280AD0AB
:1017E000FFE7019808280CD04FE042F20040C0F219
:1017F000F40002904FE041F20020C0F27A00029023
:1018000049E043F60400C4F20200016801F03F0120
:10181000059100684002002813D5FFE743F6040055
:10182000C4F202000068C0F3881041F20021C0F247
:101830007A01A0FB0101059A0023FEF7C1FC049088
:1018400012E043F60400C4F202000068C0F38810FE
:1018500042F20041C0F2F401A0FB0101059A00230D
:10186000FEF7AEFC0490FFE743F60400C4F202006A
:10187000006800F44030022101EBD030039004985E
:101880000399B0FBF1F0029005E042F20040C0F293
:10189000F4000290FFE7029806B080BD80B586B0E4
:1018A00004900498002804D1FFE701208DF8170068
:1018B00048E304980078C007002800F0A780FFE7FD
:1018C00043F60800C4F20200006800F00C0004288F
:1018D00013D0FFE743F60800C4F20200006800F0EE
:1018E0000C0008281FD1FFE743F60400C4F20200F1
:1018F00000684002002816D5FFE743F60000C4F256
:101900000200006800F400300021B1EB504F09D014
:10191000FFE704984068002804D1FFE701208DF814
:1019200017000FE371E0FFE704984068B0F5803FCF
:1019300009D1FFE743F60000C4F20200016841F458
:101940008031016020E004984068B0F5A02F0DD1EF
:10195000FFE743F60000C4F20200016841F4802171
:101960000160016841F4803101600CE043F6000041
:10197000C4F20200016821F480310160016821F4A1
:1019800080210160FFE7FFE7FFE704984068002837
:101990001DD0FFE7FFF7EAFC0390FFE743F60000E6
:1019A000C4F20200006800F400300021B1EB504F97
:1019B0000CD1FFE7FFF7DAFC0399401A652804D33E
:1019C000FFE703208DF81700BCE2E7E71CE0FFF714
:1019D000CDFC0390FFE743F60000C4F2020000686C
:1019E00000F400300021B1EB504F0CD0FFE7FFF7BF
:1019F000BDFC0399401A652804D3FFE703208DF846
:101A000017009FE2E7E7FFE7FFE7FFE704980078AA
:101A10008007002840F19780FFE743F60800C4F2F2
:101A20000200006810F00C0F13D0FFE743F6080027
:101A3000C4F20200006800F00C0008282CD1FFE777
:101A400043F60400C4F2020000684002002823D4D8
:101A5000FFE743F60000C4F20200006800F0020055
:101A60000021B1EB500F09D0FFE70498C0680128AE
:101A700004D0FFE701208DF8170063E243F6000071
:101A8000C4F20200016821F0F801049A126941EAE7
:101A9000C2010160FFE755E00498C06800282ED01D
:101AA000FFE70020C4F2472001210160FFF75EFC40
:101AB0000390FFE743F60000C4F20200006800F064
:101AC00002000021B1EB500F0CD1FFE7FFF74EFCF5
:101AD0000399401A032804D3FFE703208DF8170069
:101AE00030E2E7E743F60000C4F20200016821F0AB
:101AF000F801049A126941EAC201016021E0002064
:101B0000C4F2472000210160FFF730FC0390FFE79B
:101B100043F60000C4F20200006800F00200002159
:101B2000B1EB500F0CD0FFE7FFF720FC0399401AF0
:101B3000032804D3FFE703208DF8170002E2E7E74C
:101B4000FFE7FFE7FFE704980078000700284CD57F
:101B5000FFE704984069002823D0FFE740F6806043
:101B6000C4F2472001210160FFF700FC0390FFE76A
:101B700043F67400C4F20200006800F00200002185
:101B8000B1EB500F0CD1FFE7FFF7F0FB0399401AC0
:101B9000032804D3FFE703208DF81700D2E1E7E71D
:101BA00022E040F68060C4F2472000210160FFF788
:101BB000DDFB0390FFE743F67400C4F20200006807
:101BC00000F002000021B1EB500F0CD0FFE7FFF74F
:101BD000CDFB0399401A032804D3FFE703208DF8B7
:101BE0001700AFE1E7E7FFE7FFE704980078400759
:101BF000002840F1CF80FFE700208DF8070043F672
:101C00004000C4F202000068C000002815D4FFE7BD
:101C1000FFE70020009043F64000C4F20200016894
:101C200041F080510160006800F080500090009801
:101C3000FFE701208DF80700FFE747F20000C4F23C
:101C400000000068C005002822D4FFE747F200002A
:101C5000C4F20000016841F480710160FFF786FB67
:101C60000390FFE747F20000C4F200000068C005DF
:101C700000280CD4FFE7FFF779FB0399401A0328EB
:101C800004D3FFE703208DF817005BE1EAE7FFE7E5
:101C9000FFE704988068012809D1FFE743F6700048
:101CA000C4F20200016841F0010101601FE00498E4
:101CB000806805280DD1FFE743F67000C4F20200EA
:101CC000016841F004010160016841F00101016017
:101CD0000CE043F67000C4F20200016821F001013B
:101CE0000160016821F004010160FFE7FFE7FFE701
:101CF0000498806800281FD0FFE7FFF737FB0390A8
:101D0000FFE743F67000C4F20200006800F0020032
:101D10000021B1EB500F0ED1FFE7FFF727FB03992E
:101D2000401A41F28931884204D3FFE703208DF83D
:101D3000170007E1E5E71EE0FFF718FB0390FFE758
:101D400043F67000C4F20200006800F002000021B7
:101D5000B1EB500F0ED0FFE7FFF708FB0399401AD5
:101D600041F28931884204D3FFE703208DF8170040
:101D7000E8E0E5E7FFE79DF80700012809D1FFE764
:101D800043F64000C4F20200016821F08051016076
:101D9000FFE7FFE704988069002800F0CF80FFE7A5
:101DA00043F60800C4F20200006800F00C000828A6
:101DB00000F08580FFE70498806902285CD1FFE786
:101DC0006020C4F2472000210160FFF7CFFA0390A2
:101DD000FFE743F60000C4F20200006800F0007064
:101DE0000021B1EB506F0CD0FFE7FFF7BFFA03996A
:101DF000401A032804D3FFE703208DF81700A1E061
:101E0000E7E70498C169026A436AD0F828C0114321
:101E100041EA83114FEACC324FF6FF739A43A2F5A1
:101E200080321143C06A41EA006043F60401C4F203
:101E3000020108606020C4F2472001210160FFF721
:101E400095FA0390FFE743F60000C4F20200006831
:101E500000F000700021B1EB506F0CD1FFE7FFF7ED
:101E600085FA0399401A032804D3FFE703208DF86D
:101E7000170067E0E7E721E06020C4F24720002177
:101E80000160FFF773FA0390FFE743F60000C4F226
:101E90000200006800F000700021B1EB506F0CD020
:101EA000FFE7FFF763FA0399401A032804D3FFE71B
:101EB00003208DF8170045E0E7E7FFE73DE00498D1
:101EC0008069012804D1FFE701208DF8170039E06F
:101ED00043F60400C4F2020000680290029800F485
:101EE00080000499C969884221D1FFE7029800F077
:101EF0003F000499096A884219D1FFE7029847F622
:101F0000C07108400499496A884210D1FFE70298DD
:101F100000F440300499896A884208D1FFE70298AA
:101F200000F070600499C96A884204D0FFE701207C
:101F30008DF8170006E0FFE7FFE7FFE700208DF8C8
:101F40001700FFE79DF8170006B080BD80B582B08E
:101F50000190019803F00AFA02B080BD81B00090B0
:101F600001B0704781B0009001B0704784B002901A
:101F7000019100200090FFE7029890F83C000128B2
:101F800004D1FFE702208DF80F0044E00298012100
:101F900080F83C10FFE7FFE7009820F0FF00019970
:101FA000C96808430090009820F44070019989683E
:101FB00008430090009820F4806001994968084324
:101FC0000090009820F4006001990968084300908F
:101FD000009820F480500199096908430090009806
:101FE00020F400500199496908430090009820F4BA
:101FF00080400199C96908430090009802990968D6
:102000004864FFE70298002180F83C10FFE70020B9
:102010008DF80F00FFE79DF80F0004B07047000037
:1020200085B003900291FFE7039890F83C000128E7
:1020300004D1FFE702208DF813007EE00398012110
:1020400080F83C10FFE7FFE70398022180F83D107D
:1020500003980068406801900398006880680090C9
:10206000019820F0700001900298006801990843DF
:10207000019001980399096848600398006800215D
:10208000C4F2010188423CD0FFE703980068B0F138
:10209000804F36D0FFE70398006840F20041C4F259
:1020A000000188422DD0FFE70398006840F6000148
:1020B000C4F20001884224D0FFE70398006840F68C
:1020C0000041C4F2000188421BD0FFE7039800687A
:1020D00040F20041C4F20101884212D0FFE70398A8
:1020E000006844F20001C4F20101884209D0FFE710
:1020F0000398006841F60001C4F2000188420ED145
:10210000FFE7009820F08000009002984068009956
:10211000084300900098039909688860FFE70398D6
:10212000012180F83D10FFE70398002180F83C1062
:10213000FFE700208DF81300FFE79DF8130005B0BE
:102140007047000080B584B002900298002804D146
:10215000FFE701208DF80F0021E0029890F83D0084
:10216000002808D1FFE70298002180F83C1002986F
:1021700000F01AF8FFE70298022180F83D1002985B
:1021800050F8041B01900846019903F0BDF902982C
:10219000012180F83D1000208DF80F00FFE79DF829
:1021A0000F0004B080BD000080B58CB00B900B9880
:1021B00000680021C4F2010188421BD1FFE7FFE75C
:1021C00000200A9043F64400C4F20200016841F086
:1021D00001010160006800F001000A900A98FFE721
:1021E0001820042100220190FFF760F90198FFF701
:1021F00051F9E8E00B98006841F20001C4F20001D7
:10220000884212D1FFE7FFE70020099043F6400023
:10221000C4F20200016841F010010160006800F0A2
:10222000100009900998FFE7CCE00B98006841F294
:102230000041C4F2000188421BD1FFE7FFE7002004
:10224000089043F64000C4F20200016841F020010A
:102250000160006800F0200008900898FFE7372030
:10226000032100220090FFF721F90098FFF712F9EF
:10227000A7E00B98006840F20041C4F201018842D7
:1022800012D1FFE7FFE70020079043F64400C4F2B5
:102290000200016841F002010160006800F00200E4
:1022A00007900798FFE78BE00B98006844F2004125
:1022B000C4F20101884212D1FFE7FFE70020069037
:1022C00043F64400C4F20200016841F400310160A9
:1022D000006800F4003006900698FFE76FE00B9866
:1022E000006844F60001C4F20101884212D1FFE700
:1022F000FFE70020059043F64400C4F202000168A5
:1023000041F480210160006800F480200590059868
:10231000FFE753E00B98006841F60001C4F20001AA
:10232000884212D1FFE7FFE70020049043F6400007
:10233000C4F20200016841F040010160006800F051
:10234000400004900498FFE737E00B98006841F6DE
:102350000041C4F20001884212D1FFE7FFE70020EC
:10236000039043F64000C4F20200016841F080018E
:102370000160006800F0800003900398FFE71BE015
:102380000B98006842F20001C4F20001884212D1A9
:10239000FFE7FFE70020029043F64000C4F202008E
:1023A000016841F480710160006800F4807002905F
:1023B0000298FFE7FFE7FFE7FFE7FFE7FFE7FFE739
:1023C000FFE7FFE7FFE70CB080BD000082B001909F
:1023D0000198022180F83D1001980068806800F0A3
:1023E000070000900098062807D0FFE701980068D2
:1023F000016841F001010160FFE70198012180F8C7
:102400003D10002002B0704782B001900198006832
:10241000C16841F00101C16001980068806800F066
:10242000070000900098062807D0FFE70198006891
:10243000016841F001010160FFE7002002B0704730
:1024400081B000900098022180F83D10FFE70098CD
:102450000068006A41F21111084210D1FFE70098AC
:102460000068006A40F24441084207D1FFE7009843
:102470000068016821F001010160FFE7FFE7FFE765
:102480000098012180F83D10002001B07047000045
:1024900080B58AB008900791FFE7089890F83C0053
:1024A000012804D1FFE702208DF82700B7E0089843
:1024B000012180F83C10FFE7FFE70898022180F82F
:1024C0003D100898006880680690069820F0770014
:1024D0000690069820F47F400690069808990968AF
:1024E0008860079800680028059000F08280FFE768
:1024F000059810287DD0FFE70598202879D0FFE7C0
:102500000598302875D0FFE70598402861D0FFE78F
:10251000059850283DD0FFE70598602849D0FFE78F
:10252000059870280BD0FFE70598B0F5805F05D0BF
:10253000FFE70598B0F5005F19D061E061E0089809
:10254000006807994A688B68C96804911946049B1A
:1025500003F0C4F80898006880680690069840F078
:1025600077000690069808990968886049E00898FD
:10257000006807994A688B68C96803911946039BEC
:1025800003F0ACF808980068816841F480418160EC
:1025900037E00898006807994A68C96802911146AF
:1025A000029A03F087FA08980068502103F0B0F807
:1025B00027E00898006807994A68C96801911146A0
:1025C000019A03F09FFA08980068602103F0A0F8D0
:1025D00017E00898006807994A68C9680091114691
:1025E000009A03F067FA08980068402103F090F819
:1025F00007E0089800680799096803F089F800E087
:10260000FFE70898012180F83D10FFE708980021B6
:1026100080F83C10FFE700208DF82700FFE79DF8C9
:1026200027000AB080BD000080B588B006900591F3
:102630000698002804D1FFE701208DF81F007DE0F7
:10264000069890F83D00002808D1FFE70698002181
:1026500080F83C10069800F075F8FFE70698022114
:1026600080F83D1006980068816844F207029143A3
:102670008160069850F8041B01900846019902F009
:1026800043FF069800688068049006980068806997
:10269000039006980068006A029005980068049903
:1026A00008430490039840F203318843039005984F
:1026B0008168806941EA00200399084303900398E8
:1026C00040F60C418843039003984FF2F001884391
:1026D00003900598C168C06941EA00200399084346
:1026E000039005980169006A090141EA00300399E5
:1026F00008430390029820F022000290029820F0F4
:102700008800029005984168406941EA00100299EA
:10271000084302900498069909688860039806990E
:10272000096888610298069909680862069801217B
:1027300080F83D1000208DF81F00FFE79DF81F0076
:1027400008B080BD80B59EB01D9000201C901B90ED
:102750001A90199018901D980068B0F1804F64D1BC
:10276000FFE7FFE70020179043F64000C4F20200A5
:10277000016841F001010160006800F0010017905C
:102780001798FFE7FFE70020169043F63000C4F2E9
:102790000200016841F001010160006800F00100E1
:1027A00016901698FFE7FFE70020159043F63000DB
:1027B000C4F20200016841F002010160006800F00B
:1027C000020015901598FFE720201890022019901C
:1027D00000211A911B9101221C920023C4F20203D2
:1027E0000DF1600C0E9018460D9161460C92CDF8DB
:1027F0002CC0FEF7A7FB082018900E9819900D9991
:102800001A911B910C9A1C9240F20040C4F20200F3
:102810000B99FEF797FB1C200A900E990D9AFEF774
:1028200045FE0A98FEF736FED9E01D98006840F292
:102830000041C4F2000188423ED1FFE7FFE70020DB
:10284000149043F64000C4F20200016841F0020116
:102850000160006800F0020014901498FFE7FFE7A1
:102860000020139043F63000C4F20200016841F0EA
:1028700001010160006800F0010013901398FFE768
:10288000C02018900220199000211A911B911C90D1
:102890000022C4F2020218AB0990104608911946B2
:1028A000FEF750FB1D2007900999089AFEF7FEFDE0
:1028B0000798FEF7EFFD91E01D98006840F60001D3
:1028C000C4F20001884240D1FFE7FFE700201290E8
:1028D00043F64000C4F20200016841F004010160C7
:1028E000006800F0040012901298FFE7FFE7002054
:1028F000119043F63000C4F20200016841F0080173
:102900000160006800F0080011901198FFE74FF493
:10291000405018900220199000211A911B911C9090
:1029200040F60042C4F2020218AB06901046059130
:102930001946FEF707FB1E2004900699059AFEF73C
:10294000B5FD0498FEF7A6FD47E01D98006840F627
:102950000041C4F2000188423ED1FFE7FFE70020BA
:10296000109043F64000C4F20200016841F00801F3
:102970000160006800F0080010901098FFE7FFE782
:1029800000200F9043F63000C4F20200016841F0CD
:1029900001010160006800F001000F900F98FFE74F
:1029A000032018900220199000211A911B911C906D
:1029B0000022C4F2020218AB03901046029119469D
:1029C000FEF7C0FA322001900399029AFEF76EFDDD
:1029D0000198FEF75FFDFFE7FFE7FFE7FFE71EB0A7
:1029E00080BD000081B0009001B0704780B582B01A
:1029F000019001980068006900F002000021B1EB2D
:102A0000500F29D0FFE701980068C06800F002006D
:102A10000021B1EB500F1ED0FFE7019800686FF066
:102A20000201016101980121017701980068806924
:102A30008007002804D0FFE70198FFF7D3FF06E0E6
:102A4000019800F057FA019800F030FBFFE7019879
:102A500000210177FFE7FFE701980068006900F0B7
:102A600004000021B1EB900F29D0FFE70198006826
:102A7000C06800F004000021B1EB900F1ED0FFE70A
:102A8000019800686FF0040101610198022101774B
:102A900001980068806910F4407F04D0FFE7019836
:102AA000FFF7A0FF06E0019800F024FA019800F07B
:102AB000FDFAFFE7019800210177FFE7FFE70198A2
:102AC0000068006900F008000021B1EBD00F29D0A8
:102AD000FFE701980068C06800F008000021B1EB32
:102AE000D00F1ED0FFE7019800686FF00801016168
:102AF00001980421017701980068C06980070028C7
:102B000004D0FFE70198FFF76DFF06E0019800F0A1
:102B1000F1F9019800F0CAFAFFE701980021017766
:102B2000FFE7FFE701980068006900F0100000214E
:102B3000B1EB101F29D0FFE701980068C06800F0D2
:102B400010000021B1EB101F1ED0FFE701980068B4
:102B50006FF0100101610198082101770198006868
:102B6000C06910F4407F04D0FFE70198FFF73AFFF7
:102B700006E0019800F0BEF9019800F097FAFFE72F
:102B8000019800210177FFE7FFE7019800680069DD
:102B9000C007002811D0FFE701980068C068C0078F
:102BA000002809D0FFE7019800686FF0010101617A
:102BB000019800F0C1FAFFE7FFE70198006800699B
:102BC000C0B20021B1EBD01F13D0FFE7019800681D
:102BD000C068C0B20021B1EBD01F09D0FFE7019857
:102BE00000686FF0800101610198FFF7B7F9FFE716
:102BF000FFE701980068006900F040000021B1EB98
:102C0000901F14D0FFE701980068C06800F04000F2
:102C10000021B1EB901F09D0FFE7019800686FF029
:102C200040010161019800F08DFCFFE7FFE701988A
:102C30000068006900F020000021B1EB501F14D0A3
:102C4000FFE701980068C06800F020000021B1EBA8
:102C5000501F09D0FFE7019800686FF02001016163
:102C60000198FFF77FF9FFE7FFE702B080BD0000A2
:102C700080B58EB00D9000200C900B900A900990BA
:102C800008900D9800680021C4F20101884223D108
:102C9000FFE7FFE70020079043F63000C4F2020090
:102CA000016841F010010160006800F01000079019
:102CB0000798FFE74FF4D4400890022009900020C5
:102CC0000A900B9001200C9041F20000C4F2020027
:102CD00008A9FEF737F90BE10D98006840F20041B2
:102CE000C4F20101884223D1FFE7FFE700200690EC
:102CF00043F63000C4F20200016841F004010160B3
:102D0000006800F0040006900698FFE74FF470702A
:102D100008900220099000200A900B9003200C904C
:102D200040F60000C4F2020008A9FEF70BF9DEE04D
:102D30000D98006844F20041C4F20101884222D19A
:102D4000FFE7FFE70020059043F63000C4F20200E1
:102D5000016841F020010160006800F0200005904A
:102D60000598FFE7402008900220099000200A9073
:102D70000B9003200C9041F20040C4F2020008A91D
:102D8000FEF7E0F8B2E00D98006844F60001C4F2E6
:102D90000101884222D1FFE7FFE70020049043F6BB
:102DA0003000C4F20200016841F0200101600068B7
:102DB00000F0200004900498FFE780200890022093
:102DC000099000200A900B9003200C9041F20040E3
:102DD000C4F2020008A9FEF7B5F886E00D98006875
:102DE00041F60001C4F20001884223D1FFE7FFE76A
:102DF0000020039043F63000C4F20200016841F065
:102E000002010160006800F0020003900398FFE7F0
:102E10004FF4404008900220099000200A900B9047
:102E200009200C9040F20040C4F2020008A9FEF70D
:102E300089F859E00D98006841F60041C4F200019C
:102E4000884223D1FFE7FFE70020029043F63000DD
:102E5000C4F20200016841F020010160006800F046
:102E6000200002900298FFE74FF480700890022043
:102E7000099000200A900B9009200C9041F200402C
:102E8000C4F2020008A9FEF75DF82CE00D98006876
:102E900042F20001C4F20001884223D1FFE7FFE7BC
:102EA0000020019043F63000C4F20200016841F0B6
:102EB00020010160006800F0200001900198FFE708
:102EC0004FF4007008900220099000200A900B90A7
:102ED00009200C9041F20040C4F2020008A9FEF75C
:102EE00031F8FFE7FFE7FFE7FFE7FFE7FFE7FFE76F
:102EF0000EB080BD81B0009001B0704780B586B043
:102F0000049003910292FFE7049890F83C00012896
:102F100004D1FFE702208DF817008DE0049801210D
:102F200080F83C10FFE7FFE70498022180F83D108D
:102F300002980C28019000F270800199DFE801F0FE
:102F4000076D6D6D206D6D6D3A6D6D6D530004985C
:102F50000068039902F0F2FB04980068816941F06F
:102F60000801816104980068816921F00401816190
:102F700003980069049909688A69104388614DE0E3
:102F800004980068039902F04FFC04980068816976
:102F900041F40061816104980068816921F48061D5
:102FA000816103980069049909688A6942EA0020EE
:102FB000886133E004980068039902F0AFFC04983C
:102FC0000068C16941F00801C16104980068C169E5
:102FD00021F00401C1610398006904990968CA6974
:102FE0001043C8611AE004980068039902F010FDCC
:102FF00004980068C16941F40061C16104980068E7
:10300000C16921F48061C16103980069049909686C
:10301000CA6942EA0020C86100E0FFE70498012184
:1030200080F83D10FFE70498002180F83C10FFE78E
:1030300000208DF81700FFE79DF8170006B080BD4F
:1030400080B584B002900298002804D1FFE70120E7
:103050008DF80F0021E0029890F83D00002808D17B
:10306000FFE70298002180F83C10029800F01AF85F
:10307000FFE70298022180F83D10029850F8041BE7
:1030800001900846019902F03FFA0298012180F868
:103090003D1000208DF80F00FFE79DF80F0004B0F1
:1030A00080BD000081B0009001B0704781B00090F9
:1030B00001B0704780B586B005900491059800680E
:1030C00004990122029202F0EDFA05980068029933
:1030D0000022C4F20102904201910CD0FFE7059852
:1030E00000684FF60041CBF6FE710844B0FA80F05C
:1030F00040090190FFE70198C007002807D0FFE7CB
:1031000005980068416C41F400414164FFE705986F
:103110000068806800F0070003900398062807D035
:10312000FFE705980068016841F001010160FFE7D1
:10313000002006B080BD000080B594B013901398B5
:1031400040F60401C2F20001884240F06881FFE7C6
:1031500000201290119010900F900E900D900C90F6
:103160000B90FDF781FA40F24000C2F200000168C6
:1031700040F2B442C2F2000213680A9008461946AF
:10318000099201F0B9FC40F2A441C2F200010860CA
:103190000A984068099A53680891194601F0ECFCB6
:1031A000089948600A988068099A916801F024FC9F
:1031B000089988600A98C068099AD16801F05CFC97
:1031C0000899C860086801281FDBFFE7FFE740F2A5
:1031D000A440C2F200000068652803DBFFE764201A
:1031E000079006E040F2A440C2F200000068079099
:1031F000FFE7079840F24451C2F200010A685063A9
:10320000086800218163FFE724E0FFE740F24450B3
:10321000C2F2000000680021416340F2A440C2F203
:10322000000000684042652803DBFFE76420069049
:1032300007E040F2A440C2F200000068404206905D
:10324000FFE7069840F24451C2F200010968886322
:10325000FFE7FFE740F2A440C2F200004068012807
:103260001FDBFFE7FFE740F2A440C2F20000406826
:10327000652803DBFFE76420059006E040F2A440E8
:10328000C2F2000040680590FFE7059840F2445103
:10329000C2F200010A68D063086800210164FFE7F8
:1032A00024E0FFE740F24450C2F200000068002131
:1032B000C16340F2A440C2F2000040684042652869
:1032C00003DBFFE76420049007E040F2A440C2F271
:1032D0000000406840420490FFE7049840F24451E7
:1032E000C2F2000109680864FFE7FFE740F2A4406A
:1032F000C2F20000806801281FDBFFE7FFE740F211
:10330000A440C2F200008068652803DBFFE7642068
:10331000039006E040F2A440C2F2000080680390EF
:10332000FFE7039840F64401C2F200010A685063C7
:10333000086800218163FFE724E0FFE740F64400CE
:10334000C2F2000000680021416340F2A440C2F2D2
:10335000000080684042652803DBFFE7642002909C
:1033600007E040F2A440C2F20000806840420290B0
:10337000FFE7029840F64401C2F200010968886341
:10338000FFE7FFE740F2A440C2F20000C068012856
:103390001FDBFFE7FFE740F2A440C2F20000C06875
:1033A000652803DBFFE76420019006E040F2A440BB
:1033B000C2F20000C0680190FFE7019840F64401A6
:1033C000C2F200010A68D063086800210164FFE7C7
:1033D00024E0FFE740F64400C2F20000006800214C
:1033E000C16340F2A440C2F20000C06840426528B8
:1033F00003DBFFE76420009007E040F2A440C2F244
:103400000000C06840420090FFE7009840F6440189
:10341000C2F2000109680864FFE7FFE78FE0139834
:1034200040F2C461C2F2000188421BD1FFE740F2C2
:10343000C460C2F2000000680068C006002808D519
:10344000FFE740F26000C2F200000188013901800C
:1034500007E040F26000C2F2000001880131018003
:10346000FFE76BE0139840F20471C2F2000188425A
:103470001BD1FFE740F20470C2F200000068006850
:10348000C006002808D5FFE740F26000C2F2000045
:1034900041880139418007E040F26000C2F200003B
:1034A000418801314180FFE747E0139840F24471C1
:1034B000C2F2000188421BD1FFE740F24470C2F221
:1034C000000000680068C006002808D5FFE740F249
:1034D0006000C2F2000081880139818007E040F27B
:1034E0006000C2F20000818801318180FFE723E0A3
:1034F000139840F28471C2F2000188421BD1FFE7A9
:1035000040F28470C2F2000000680068C006002823
:1035100008D5FFE740F26000C2F20000C18801391F
:10352000C18007E040F26000C2F20000C1880131B2
:10353000C180FFE7FFE7FFE7FFE7FFE7FFE714B022
:1035400080BD000081B0009001B0704780B582B0AE
:10355000019000200090019800684069C0B2C00945
:103560000090019890F83900212818D1FFE70098C1
:10357000002814D0FFE701980068416921F080011C
:1035800041610198006B002805D0FFE70198006BAE
:10359000FDF726F9FFE7019802F08EFBFFE701989F
:1035A00000684069C0F380100090019890F83A00DC
:1035B000222818D1FFE70098002814D0FFE70198CF
:1035C0000068416921F0400141610198406B002889
:1035D00005D0FFE70198406BFDF702F9FFE701987E
:1035E00002F042FBFFE7002002B080BD81B00090F6
:1035F00001B0704780B586B00590059800680068F6
:10360000049005980068C0680390059800684069B8
:103610000290002001900090049800F00F000190AB
:103620000198002811D1FFE79DF8100080060028BE
:103630000AD5FFE79DF80C008006002804D5FFE7B7
:10364000059802F0B1FBE1E0FFE70198002800F0E7
:10365000BD80FFE79DF80800C007002807D1FFE7FD
:10366000BDF80C0010F4907F00F0B080FFE79DF8EB
:103670001000C00700280CD0FFE79DF80D00C00720
:10368000002806D0FFE70598C16B41F00101C16336
:10369000FFE79DF81000400700280CD5FFE79DF8D4
:1036A0000800C007002806D0FFE70598C16B41F06D
:1036B0000201C163FFE79DF81000800700280CD5C8
:1036C000FFE79DF80800C007002806D0FFE705982F
:1036D000C16B41F00401C163FFE79DF810000007D2
:1036E000002812D5FFE79DF80C008006002806D4BC
:1036F000FFE79DF80800C007002806D0FFE70598FF
:10370000C16B41F00801C163FFE70598C06B002859
:103710005BD0FFE79DF81000800600280AD5FFE780
:103720009DF80C008006002804D5FFE7059802F0FC
:103730003BFBFFE7059800684069C0F380100090EC
:103740000598C06B0007002804D4FFE70098002804
:1037500033D0FFE7059802F087FA059800684069C2
:103760004006002824D5FFE705980068416921F04C
:10377000400141610598406B002814D0FFE705988F
:10378000406B45F65931C0F6000101650598406B64
:10379000FDF7A0F8002805D0FFE70598406B016D04
:1037A0008847FFE703E00598FFF720FFFFE703E006
:1037B0000598FFF71BFFFFE706E00598FFF716FFE8
:1037C00005980021C163FFE7FFE71FE09DF81000A7
:1037D000000600280AD5FFE79DF80C000006002827
:1037E00004D5FFE7059802F07BFC0FE09DF8100080
:1037F000400600280AD5FFE79DF80C004006002887
:1038000004D5FFE7059802F043FAFFE706B080BD54
:1038100080B582B000900098002804D1FFE7012015
:103820008DF8070040E000988069002801D0FFE78C
:1038300000E0FFE7009890F83900002808D1FFE782
:103840000098002180F83810009800F031F8FFE768
:103850000098242180F8391000980068C16821F48C
:103860000051C160009802F019FB009800680169DE
:1038700021F49041016100980068416921F02A011A
:10388000416100980068C16841F40051C16000982E
:103890000021C1630098202280F83920009880F828
:1038A0003A208DF80710FFE79DF8070002B080BDB1
:1038B00080B58CB00B9000200A900990089007907A
:1038C00006900B98006841F20001C4F201018842A1
:1038D00069D1FFE7FFE70020059043F64400C4F2FA
:1038E0000200016841F010010160006800F0100062
:1038F00005900598FFE7FFE70020049043F63000AD
:10390000C4F20200016841F001010160006800F0AA
:10391000010004900498FFE74FF4C0600690022075
:103920000790002008900321099107210A910021A6
:10393000C4F2020106AA019008461146FDF702FBF7
:1039400040F2E440C2F2000046F24041C4F20201FB
:1039500001604FF00061416001998160C1604FF4E6
:103960008062026141618161C16101624162FDF772
:1039700075F9002803D0FFE7FCF730FFFFE7FFE70A
:103980000B9840F2E441C2F2000141630B98886356
:10399000FFE72520062100220090FDF787FD009813
:1039A000FDF778FD3DE00B98006844F20041C4F259
:1039B0000001884234D1FFE7FFE70020039043F67F
:1039C0004000C4F20200016841F400310160006867
:1039D00000F4003003900398FFE7FFE70020029017
:1039E00043F63000C4F20200016841F008010160B2
:1039F000006800F0080002900298FFE7602006903F
:103A000002200790002008900320099007200A90C8
:103A100040F60040C4F2020006A9FDF793FAFFE762
:103A2000FFE70CB080BD000080B586B0134604905F
:103A30000391ADF80A20049890F83A00202879D133
:103A4000FFE70398002805D0FFE7BDF80A0000282B
:103A500004D1FFE701208DF817006FE0FFE704981D
:103A600090F83800012804D1FFE702208DF81700F4
:103A700064E00498012180F83810FFE7FFE703981D
:103A800004998862BDF80A00049988850498002189
:103A9000C1630498222280F83A200498406B45F6CE
:103AA000F932C0F60002C2630498406B45F65142F9
:103AB000C0F6000202640498406B45F67932C0F605
:103AC0000002C2640498406B016503A80190049849
:103AD0000168406B0431019A1268BDF80A30FDF7A5
:103AE00079F9FFE7002000900498006800680090D2
:103AF00004980068406800900098FFE7FFE704988A
:103B0000002180F83810FFE704980068C16841F48C
:103B10008071C16004980068416941F00101416110
:103B200004980068416941F04001416100208DF82E
:103B3000170003E002208DF81700FFE79DF817003B
:103B400006B080BD81B0009001B0704781B0009098
:103B500001B0704781B0009001B07047FFE7FEE709
:103B600080B58CB0FFE700200B900A900990089078
:103B700007900421079111210891099003200A90D0
:103B80000020C4F2020007A9FDF7DCF9FFE70020DE
:103B9000C4F2020008210122069005910492FDF76B
:103BA000CBFB04200699039008460399049AFDF77D
:103BB000C3FB02200290FDF793F9002006990190C3
:103BC00008460399019AFDF7B7FB0298FDF788F9BB
:103BD00006980599019AFDF7AFFB0298FDF780F969
:103BE0000CB080BD80B584B00020C4F20200082172
:103BF000012203900292FDF79FFB0420002203990B
:103C0000019008460199FDF797FB02200090FDF70F
:103C100067F903980199029AFDF78EFB0098FDF76A
:103C20005FF904B080BD000080B588B00020ADF819
:103C30001C00FFE70020069005900490039002907E
:103C400004210291039004900020C4F2020002A912
:103C5000FDF778F9FFE70020C4F2020008210122F5
:103C6000FDF76AFB0220FDF73BF9FFE70020C4F2F5
:103C700002000421FDF748FB002811D0FFE7BDF842
:103C80001C000130ADF81C00BDF81C00FB2806DB51
:103C9000FFE7FFF7A7FF01208DF81F000FE0E5E722
:103CA0000020C4F20200082100220192FDF744FB2B
:103CB0000220FDF715F901988DF81F00FFE79DF828
:103CC0001F0008B080BD000081B00146ADF80200C1
:103CD000BDF80200404240F2B442C2F2000210605D
:103CE000002050609060BDF802004042D06001B0FA
:103CF0007047000081B00146ADF8020040F2B440C8
:103D0000C2F2000000220260BDF802305B42436054
:103D1000BDF802305B428360C26001B070470000B2
:103D200081B00146ADF8020040F2B440C2F200009A
:103D300000220260BDF802304360BDF802308360AB
:103D4000C26001B07047000081B00146ADF80200CA
:103D5000BDF8020040F2B442C2F20002106000203E
:103D600050609060BDF80200D06001B07047000064
:103D700081B00146ADF80200BDF80200404240F2B9
:103D8000B442C2F200021060BDF80200404250602E
:103D9000BDF8020040429060BDF802004042D06091
:103DA00001B0704781B00146ADF80200BDF80200D5
:103DB00040F2B442C2F200021060BDF8020050604E
:103DC000BDF802009060BDF80200D06001B07047FD
:103DD00081B00146ADF80200BDF80200404240F259
:103DE000B442C2F200021060BDF802005060BDF89B
:103DF00002009060BDF802004042D06001B0704700
:103E000081B00146ADF80200BDF8020040F2B442B4
:103E1000C2F200021060BDF8020040425060BDF8DE
:103E2000020040429060BDF80200D06001B07047CF
:103E300081B00146ADF80200BDF80200404240F2F8
:103E4000B442C2F200021060BDF802005060BDF83A
:103E5000020040429060BDF80200D06001B070479F
:103E600081B00146ADF80200BDF8020040F2B44254
:103E7000C2F200021060BDF8020040425060BDF87E
:103E800002009060BDF802004042D06001B070476F
:103E900040F2B440C2F20000002101604160816044
:103EA000C160704780B584B0FFE70020039043F6FF
:103EB0003000C4F20200016841F480010160006832
:103EC00000F4800003900398FFE73A20002102905D
:103ED0000191019AFDF7EAFA0298FDF7DBFA04B0C6
:103EE00080BD000080B590B000200F900E900D9026
:103EF0000C900B90FFE700200A9043F63000C4F2CC
:103F00000200016841F010010160006800F010003B
:103F10000A900A98FFE7FFE70020099043F6300077
:103F2000C4F20200016841F004010160006800F081
:103F3000040009900998FFE7FFE70020089043F686
:103F40003000C4F20200016841F020010160006805
:103F500000F0200008900898FFE7FFE70020079096
:103F600043F63000C4F20200016841F080010160B4
:103F7000006800F0800007900798FFE7FFE7002047
:103F8000069043F63000C4F20200016841F00101DE
:103F90000160006800F0010006900698FFE7FFE767
:103FA0000020059043F63000C4F20200016841F0A1
:103FB00002010160006800F0020005900598FFE72B
:103FC000FFE70020049043F63000C4F202000168CD
:103FD00041F008010160006800F0080004900498B6
:103FE000FFE70020C4F202000C210022039002919E
:103FF0000192FDF7A1F97F200B9001980C900D9094
:1040000041F20000C4F202000BA90091FCF79AFFF4
:104010004FF400500B9001980C900D9040F600006A
:10402000C4F202000099FCF78DFF02980B90112159
:104030000C9101990D9103220E9203980099FCF7BF
:1040400081FF10B080BD000080B588B000200790CF
:1040500006900590049003900290019040F28451E4
:10406000C2F2000144F20042C4F201020A60A72237
:104070004A60886040F62832CA6008618861084654
:10408000FEF760F8002803D0FFE7FCF7A7FBFFE787
:1040900040F28450C2F20000FEF7D2FF002803D0A5
:1040A000FFE7FCF79BFBFFE76020019000200290F8
:1040B0000390059040F28451C2F2000101AA0090E1
:1040C00008461146009AFEF719FF002803D0FFE7C3
:1040D000FCF784FBFFE740F28450C2F20000FEF7D9
:1040E000C7FD08B080BD000080B588B000200790F3
:1040F00006900590049003900290019040F2C45104
:10410000C2F2000144F60002C4F201020A60A722D2
:104110004A60886040F62832CA60086188610846B3
:10412000FEF710F8002803D0FFE7FCF757FBFFE786
:1041300040F2C450C2F20000FEF782FF002803D014
:10414000FFE7FCF74BFBFFE76020019000200290A7
:104150000390059040F2C451C2F2000101AA009000
:1041600008461146009AFEF7C9FE002803D0FFE773
:10417000FCF734FBFFE740F2C450C2F20000FEF748
:1041800077FD08B080BD000080B58CB000200B909A
:104190000A9009900890079006900590049003906B
:1041A0000290019040F20461C2F2000141F6000267
:1041B000C4F200020A6053224A60886040F6283246
:1041C000CA60086188610846FDF7BCFF002803D07B
:1041D000FFE7FCF703FBFFE74FF48050089040F245
:1041E0000460C2F2000008A9FEF752F9002803D0CB
:1041F000FFE7FCF7F3FAFFE740F20460C2F20000C9
:10420000FEF71EFF002803D0FFE7FCF7E7FAFFE701
:1042100060200190002002900390059040F204611C
:10422000C2F2000101AA009008461146009AFEF76A
:1042300065FE002803D0FFE7FCF7D0FAFFE740F265
:104240000460C2F2000001A90422FEF757FE002814
:1042500003D0FFE7FCF7C2FAFFE740F20460C2F2C6
:104260000000FEF705FD0CB080BD000080B588B0F1
:104270000020079006900590049003900290019012
:1042800040F24461C2F2000141F60042C4F2000271
:104290000A6053224A60886040F62832CA6008618A
:1042A00088610846FDF74EFF002803D0FFE7FCF7C2
:1042B00095FAFFE740F24460C2F20000FEF7C0FE4C
:1042C000002803D0FFE7FCF789FAFFE760200190A0
:1042D000002002900390059040F24461C2F2000178
:1042E00001AA009008461146009AFEF707FE002832
:1042F00003D0FFE7FCF772FAFFE740F24460C2F236
:104300000000FEF7B5FC08B080BD000080B588B0A5
:104310000020079006900590049003900290019071
:1043200040F28461C2F2000142F20002C4F20002D3
:104330000A6053224A60886040F62832CA600861E9
:1043400088610846FDF7FEFE002803D0FFE7FCF772
:1043500045FAFFE740F28460C2F20000FEF770FE0B
:10436000002803D0FFE7FCF739FAFFE7602001904F
:10437000002002900390059040F28461C2F2000197
:1043800001AA009008461146009AFEF7B7FD0028E2
:1043900003D0FFE7FCF722FAFFE740F28460C2F2A5
:1043A0000000FEF765FC08B080BD000080B596B047
:1043B00000201590149013901290119010900F906F
:1043C0000E900D900C900B900A9009900890079019
:1043D00006900590049003900290019040F24451A1
:1043E000C2F200010022C4F201020A60A7224A6060
:1043F00088606322CA600861486188610846FDF7E9
:10440000A1FE002803D0FFE7FCF7E8F9FFE74FF42F
:104410008050129040F24450C2F2000012A9FEF700
:1044200037F8002803D0FFE7FCF7D8F9FFE740F2A0
:104430004450C2F20000FEF703FE002803D0FFE75D
:10444000FCF7CCF9FFE700201090119040F24450A7
:10445000C2F2000010A9FDF7E3FD002803D0FFE73A
:10446000FCF7BCF9FFE76020099000200A900B9050
:104470000C900D900E900F9040F24451C2F200014A
:1044800009AA009008461146009AFEF737FD002859
:1044900003D0FFE7FCF7A2F9FFE740F24450C2F275
:1044A000000009A90422FEF729FD002803D0FFE738
:1044B000FCF794F9FFE740F24450C2F2000009A96A
:1044C0000822FEF71BFD002803D0FFE7FCF786F962
:1044D000FFE740F24450C2F2000009A90C22FEF7A7
:1044E0000DFD002803D0FFE7FCF778F9FFE7002077
:1044F000019002900390049005904FF400510691B2
:10450000089040F24450C2F2000001A9FDF72EFDD0
:10451000002803D0FFE7FCF761F9FFE740F24450C1
:10452000C2F20000FEF7A4FB16B080BD80B58CB0CF
:1045300003A824210090FBF78DFE0020029001903B
:1045400040F2C461C2F200014FF080420A6048604C
:1045500088604FF0FF32CA600861886103220392CD
:1045600004900122059206900790089009920A9003
:104570000F200B9008460099FEF756F8002803D04C
:10458000FFE7FCF72BF9FFE700200190029040F2D3
:10459000C460C2F2000001A9FDF742FD002803D06B
:1045A000FFE7FCF71BF9FFE70CB080BD80B58CB0CE
:1045B00003A824210090FBF74DFE002002900190FB
:1045C00040F20471C2F2000140F20042C4F2000263
:1045D0000A60486088604FF6FF72CA6008618861AF
:1045E00003220392049001220592069007900890FE
:1045F00009920A900F200B9008460099FEF714F8D4
:10460000002803D0FFE7FCF7E9F8FFE7002001905E
:10461000029040F20470C2F2000001A9FDF700FD13
:10462000002803D0FFE7FCF7D9F8FFE70CB080BD06
:1046300080B58CB003A824210090FBF70BFE00206E
:104640000290019040F24471C2F2000140F6000273
:10465000C4F200020A60486088604FF6FF72CA60C8
:10466000086188610322039204900122059206905A
:104670000790089009920A900F200B900846009925
:10468000FDF7D2FF002803D0FFE7FCF7A7F8FFE70C
:1046900000200190029040F24470C2F2000001A993
:1046A000FDF7BEFC002803D0FFE7FCF797F8FFE713
:1046B0000CB080BD80B58CB003A824210090FBF71E
:1046C000C9FD00200290019040F28471C2F2000105
:1046D00040F60042C4F200020A60486088604FF071
:1046E000FF32CA60086188610322039204900122AC
:1046F000059206900790089009920A900F200B905F
:1047000008460099FDF790FF002803D0FFE7FCF76B
:1047100065F8FFE700200190029040F28470C2F239
:10472000000001A9FDF77CFC002803D0FFE7FCF79F
:1047300055F8FFE70CB080BD80B582B00020019035
:10474000009040F2C471C2F2000141F20002C4F2D2
:1047500000020A6053224A6088604FF6FF72CA6006
:1047600088610846FDF7EEFC002803D0FFE7FCF760
:1047700035F8FFE700200090019040F2C470C2F2CB
:1047800000006946FDF74CFC002803D0FFE7FCF76A
:1047900025F8FFE702B080BD80B582B0002001900F
:1047A000009040F60401C2F2000141F20042C4F25E
:1047B00000020A6053224A60886042F20F72CA60A7
:1047C00088610846FDF7BEFC002803D0FFE7FCF730
:1047D00005F8FFE700200090019040F60400C2F2C7
:1047E00000006946FDF71CFC002803D0FFE7FBF73B
:1047F000F5FFFFE702B080BD80B596B000201590B0
:10480000149013901290119010900F900E900D90A4
:104810000C900B900A9009900890079006900590D4
:10482000049003900290019040F64401C2F200010E
:1048300040F20042C4F201020A60A7224A60886086
:104840006322CA600861486188610846FDF77AFC06
:10485000002803D0FFE7FBF7C1FFFFE74FF48050CC
:10486000129040F64400C2F2000012A9FDF710FEBB
:10487000002803D0FFE7FBF7B1FFFFE740F6440055
:10488000C2F20000FEF7DCFB002803D0FFE7FBF7D5
:10489000A5FFFFE700201090119040F64400C2F2FF
:1048A000000010A9FDF7BCFB002803D0FFE7FBF7D1
:1048B00095FFFFE76020099000200A900B900C9074
:1048C0000D900E900F9040F64401C2F2000109AA2B
:1048D000009008461146009AFEF710FB002803D00E
:1048E000FFE7FBF77BFFFFE740F64400C2F2000062
:1048F00009A90422FEF702FB002803D0FFE7FBF71B
:104900006DFFFFE740F64400C2F2000009A908224B
:10491000FEF7F4FA002803D0FFE7FBF75FFFFFE79D
:1049200040F64400C2F2000009A90C22FEF7E6FAA4
:10493000002803D0FFE7FBF751FFFFE700200190BD
:1049400002900390049005904FF400510691089056
:1049500040F64400C2F2000001A9FDF707FB002861
:1049600003D0FFE7FBF73AFFFFE740F64400C2F24F
:104970000000FEF77DF916B080BD000080B540F65E
:104980008400C2F2000041F20001C4F201010160A2
:104990004FF4E131416000218160C16001610C226E
:1049A00042618161C161FEF733FF002803D0FFE758
:1049B000FBF714FFFFE780BD80B540F6C400C2F2EC
:1049C000000044F20041C4F2000101604FF4E13103
:1049D000416000218160C16001610C2242618161FE
:1049E000C161FEF715FF002803D0FFE7FBF7F6FED5
:1049F000FFE780BDFFE7FEE782B0019000910198DC
:104A00000099401A40F27401C2F20001086040F2BD
:104A10001000C2F2000090ED020A086840F278022D
:104A2000C2F200021368C31A01EE103AB8EEC11ABE
:104A300020EE010A40F20003C2F2000393ED021AD5
:104A400002EE100AB8EEC22A21EE021A30EE010A76
:104A500040F27C00C2F2000090ED001AB8EEC11ADC
:104A600031EE400ABDEEC00A80ED000A096811600F
:104A7000006802B07047000082B001900091019878
:104A80000099401A40F28001C2F20001086040F231
:104A90001000C2F2000090ED030A086840F28402A0
:104AA000C2F200021368C31A01EE103AB8EEC11A3E
:104AB00020EE010A40F20003C2F2000393ED031A54
:104AC00002EE100AB8EEC22A21EE021A30EE010AF6
:104AD00040F28800C2F2000090ED001AB8EEC11A50
:104AE00031EE400ABDEEC00A80ED000A096811608F
:104AF000006802B07047000082B0019000910198F8
:104B00000099401A40F28C01C2F20001086040F2A4
:104B10001000C2F2000090ED000A086840F2900216
:104B2000C2F200021368C31A01EE103AB8EEC11ABD
:104B300020EE010A40F20003C2F2000393ED001AD6
:104B400002EE100AB8EEC22A21EE021A30EE010A75
:104B500040F29400C2F2000090ED001AB8EEC11AC3
:104B600031EE400ABDEEC00A80ED000A096811600E
:104B7000006802B07047000082B001900091019877
:104B80000099401A40F29801C2F20001086040F218
:104B90001000C2F2000090ED010A086840F29C0289
:104BA000C2F200021368C31A01EE103AB8EEC11A3D
:104BB00020EE010A40F20003C2F2000393ED011A55
:104BC00002EE100AB8EEC22A21EE021A30EE010AF5
:104BD00040F2A000C2F2000090ED001AB8EEC11A37
:104BE00031EE400ABDEEC00A80ED000A096811608E
:104BF000006802B07047000010B58EB040F244501B
:104C0000C2F2000000210D900C91FEF753FA04212E
:104C10000D9A0B9010460A91FEF74CFA08210D9A56
:104C2000099010460891FEF745FA0C210D9A07905D
:104C300010460691FEF73EFA40F64401C2F200012A
:104C4000059008460C9A04911146FEF733FA049930
:104C5000039008460A99FEF72DFA04990290084637
:104C60000899FEF727FA0499019008460699FEF77D
:104C700021FA0D990A680C9B53630A6893630A68CA
:104C8000D3630A681364049AD2F800C0CCF83430B5
:104C9000D2F800C0CCF83830D2F800C0CCF83C30A4
:104CA000D2F800C0CCF8403040F6040CC2F2000C40
:104CB000DCF800E06FF00104CEF810400090604690
:104CC000FDF7A2FB0EB010BD7047000088B0079042
:104CD00006910592079800F0070004900498C0F12F
:104CE0000700052803D3FFE70420019004E004989F
:104CF000C0F107000190FFE7019803900498043089
:104D0000062803D8FFE70020009003E0049803384A
:104D10000090FFE70098029006980399012202FA9A
:104D200001F10139084002998840059B02FA01F11E
:104D300001391940084308B07047000080B582B0BF
:104D40006846002101607F223F23084600F05AF8A0
:104D500002B080BD80B582B013468C4686468DF881
:104D600007008DF806108DF8052000208DF8020050
:104D70009DF807007F2805DCFFE79DF80600402826
:104D800001DBFFE73BE09DF806000721A1EBD00027
:104D90008DF804009DF8060000F007008DF8030070
:104DA0009DF80300C0F10700012101FA00F08DF821
:104DB00002009DF80500002810D0FFE79DF80200D2
:104DC0009DF8071040F2A402C2F2000202EBC101FA
:104DD0009DF804208B5C1843885410E09DF8020075
:104DE0009DF8071040F2A402C2F2000202EBC101DA
:104DF0009DF804208B5C23EA00008854FFE702B092
:104E000080BD000070B582B0DDF818C09E46144623
:104E10000D4606468DF807008DF806108DF8052022
:104E20008DF804308DF803C09DF807008DF802005E
:104E3000FFE79DF802009DF80510884222DCFFE79D
:104E40009DF806008DF80100FFE79DF801009DF830
:104E5000041088420FDCFFE79DF802009DF8011066
:104E60009DF80320FFF776FFFFE79DF80100013072
:104E70008DF80100E9E7FFE79DF8020001308DF8A9
:104E80000200D6E700F054F802B070BD80B564208F
:104E9000FCF704F8AE2000F021FAD52000F01EFA4D
:104EA000802000F01BFAA82000F018FA3F2000F044
:104EB00015FAD32000F012FA002000F00FFA40207B
:104EC00000F00CFA8D2000F009FA142000F006FA28
:104ED000202000F003FA022000F000FAA12000F0E8
:104EE000FDF9C02000F0FAF9DA2000F0F7F91220FD
:104EF00000F0F4F9812000F0F1F9EF2000F0EEF974
:104F0000D92000F0EBF9F12000F0E8F9DB2000F007
:104F1000E5F9302000F0E2F9A42000F0DFF9A62046
:104F200000F0DCF9AF2000F0D9F9FFF707FF80BDF2
:104F300080B582B000208DF80700FFE79DF80700DC
:104F4000072831DCFFE79DF80700B030C0B200F061
:104F5000C5F90020009000F0C1F9102000F0BEF962
:104F600000988DF80600FFE79DF806007F2814DC06
:104F7000FFE79DF8060040F2A401C2F2000101EB38
:104F8000C0009DF80710405C00F0CAF9FFE79DF8EB
:104F9000060001308DF80600E6E7FFE79DF8070000
:104FA00001308DF80700C9E702B080BD70B588B048
:104FB000DDF830C09E4614460D4606468DF81F00AB
:104FC0008DF81E108DF81D208DF81C308DF81BC03B
:104FD0009DF81E008DF817009DF81C00C1080122E5
:104FE00002EBD0024307002B18BF11464FEA5000D6
:104FF00001FB00F08DF816009DF81D00A0F12000C7
:105000008DF81D004FF000008DF81A00FFE79DF8A5
:105010001A009DF81610884280F29680FFE79DF8EE
:105020001C0001460C28049108D0FFE704981028C2
:1050300014D0FFE7049818281ED02DE09DF81D001D
:1050400000EB400046F21A71C0F6000101EB80004F
:105050009DF81A10405C8DF818001EE09DF81D00A8
:1050600046F68E31C0F6000101EB00109DF81A10D3
:10507000405C8DF8180010E09DF81D0000EBC000AA
:1050800047F27E11C0F6000101EB80009DF81A1076
:10509000405C8DF8180000E056E000208DF8190003
:1050A000FFE79DF81900072847DCFFE79DF81F0080
:1050B0009DF81E109DF818201206002A03900291F8
:1050C00004D5FFE79DF81B00019006E09DF81B004A
:1050D000B0FA80F040090190FFE701980399CAB245
:1050E000029BD9B2C0B200901046009AFFF732FE80
:1050F0009DF8180040008DF818009DF81E00013042
:105100008DF81E009DF81E009DF81710401A9DF89E
:105110001C1088420AD1FFE79DF817008DF81E0089
:105120009DF81F0001308DF81F0006E0FFE79DF895
:10513000190001308DF81900B3E7FFE79DF81A0058
:1051400001308DF81A0062E708B070BD10B586B066
:105150009C468E4604468DF817008DF81610049272
:105160008DF80F30FFE70498007800217E28029127
:1051700008DCFFE70498007800211F28C8BF012140
:105180000291FFE70298C007002841D0FFE79DF891
:1051900017009DF80F108022A2EB510188420BDD11
:1051A000FFE700208DF817009DF80F009DF81610FE
:1051B00008448DF81600FFE79DF816009DF80F10C3
:1051C000C1F14001884208DDFFE700208DF817009B
:1051D0008DF81600FFF7B2FDFFE79DF817009DF868
:1051E0001610049A12789DF80F30EC464FF0010E1D
:1051F000CCF800E0FFF7DAFE9DF80F009DF81710DD
:1052000001EB50008DF81700049801300490AAE7D4
:10521000FFF78EFE06B010BD80B588B001468DF850
:105220001F00FFE700200690059004900390029075
:105230000421029111210391049003200590002084
:10524000C4F2020002A9FBF77DFEFFE700208DF803
:105250001E00FFE79DF81E0007283DDCFFE7002049
:10526000C4F2020008210022FCF766F80220FBF7D6
:1052700037FE9DF81F000006002808D5FFE7002034
:10528000C4F2020004210122FCF756F807E00020D6
:10529000C4F2020004210022FCF74EF8FFE70020D0
:1052A000C4F202000821012201900091FCF744F8A9
:1052B0000220FBF715FE002201980099FCF73CF84C
:1052C0009DF81F0040008DF81F00FFE79DF81E00AD
:1052D00001308DF81E00BDE708B080BD80B586B0F6
:1052E00001468DF817000491FEF73AFC7820FFF78D
:1052F00093FFFEF799FC002103900846FFF78CFF0F
:10530000FEF792FC9DF8171002900846FFF784FF05
:10531000FEF78AFC0190FEF765FC06B080BD000038
:1053200080B586B001468DF817000491FEF718FC91
:105330007820FFF771FFFEF777FC402103900846C5
:10534000FFF76AFFFEF770FC9DF817100290084601
:10535000FFF762FFFEF768FC0190FEF743FC06B022
:1053600080BD0000704700007047000080B582B02B
:10537000009000980138B0F1807F03D3FFE701204F
:10538000019019E0009801384EF21401CEF20001AC
:1053900008604FF0FF300F2100F026FF4EF218009A
:1053A000CEF20000002101604EF21000CEF20000AB
:1053B000072202600191FFE7019802B080BD000062
:1053C00080B5FBF7D9FF80BD80B594B008A8302127
:1053D000FAF740FF00200790069005900490039094
:1053E000FFE70020029043F64000C4F2020001688B
:1053F00041F080510160006800F0805002900298F6
:10540000FFE7FFE70020019047F20000C4F2000030
:10541000016841F480410160006800F4804001901F
:105420000198FFE7012008904FF480300990022096
:105430000E904FF480010F9104211091A822119237
:105440001290139108A8FCF729FA002803D0FFE76F
:10545000FBF7C4F9FFE70F2003900220049000201F
:1054600005904FF4A05006904FF48050079003A889
:105470000521FCF743F8002803D0FFE7FBF7AEF95E
:10548000FFE714B080BD00004EF68850CEF2000059
:10549000016841F4700101604EF60850CEF2000040
:1054A0004FF000610160704780B540F24450C2F295
:1054B0000000FDF79BFA80BD80B540F2C460C2F2E7
:1054C0000000FDF793FA80BD80B540F20470C2F28F
:1054D0000000FDF78BFA80BD80B540F24470C2F247
:1054E0000000FDF783FA80BD80B540F28470C2F2FF
:1054F0000000FDF77BFA80BD80B540F60400C2F2E3
:105500000000FDF773FA80BD83B00290019102980C
:105510000068009002980021C4F20101884225D061
:10552000FFE70298B0F1804F20D0FFE7029840F2E9
:105530000041C4F20001884218D0FFE7029840F60B
:105540000001C4F20001884210D0FFE7029840F643
:105550000041C4F20001884208D0FFE7029840F2FF
:105560000041C4F2010188420AD1FFE7009820F00F
:105570007000009001984068009908430090FFE790
:1055800002980021C4F20101884255D0FFE7029839
:10559000B0F1804F50D0FFE7029840F20041C4F2D2
:1055A0000001884248D0FFE7029840F60001C4F2AB
:1055B0000001884240D0FFE7029840F60041C4F263
:1055C0000001884238D0FFE7029840F20041C4F25F
:1055D0000101884230D0FFE7029844F20001C4F292
:1055E0000101884228D0FFE7029844F20041C4F24A
:1055F0000101884220D0FFE7029844F60001C4F27E
:105600000101884218D0FFE7029841F60001C4F278
:105610000001884210D0FFE7029841F60041C4F231
:105620000001884208D0FFE7029842F20001C4F26C
:10563000000188420AD1FFE7009820F440700090F2
:105640000198C068009908430090FFE7009820F097
:105650008000019949690843009000980299086008
:10566000019880680299C86201980068029988626E
:1056700002980021C4F20101884208D0FFE7029895
:1056800040F20041C4F20101884205D1FFE70198D0
:10569000006902990863FFE702980121416103B0A4
:1056A0007047000084B0039002910192029800F0CC
:1056B0001F00012101FA00F00090009803990A6A86
:1056C00022EA000008620198029901F01F01884057
:1056D00003990A6A1043086204B0704785B00490C9
:1056E000039102920193049880680090009820F43E
:1056F0007F40009003980299019A41EA02210843F1
:1057000000990843009000980499886005B070479C
:1057100083B002900191029880680090009820F078
:105720007000009001980099084340F00700009035
:1057300000980299886003B07047000085B004901B
:1057400003910498016A21F0010101620498006A42
:105750000190049840680090049880690290029833
:1057600020F070000290029820F00300029003984D
:105770000068029908430290019820F0020001900D
:105780000398806801990843019004980021C4F2AD
:105790000101884208D0FFE7049840F20041C4F2BA
:1057A000010188420ED1FFE7019820F00800019026
:1057B0000398C068019908430190019820F0040003
:1057C0000190FFE704980021C4F20101884208D04B
:1057D000FFE7049840F20041C4F20101884213D16E
:1057E000FFE7009820F480700090009820F400708B
:1057F00000900398406900990843009003988069DD
:10580000009908430090FFE70098049948600298C7
:105810000499886103984068049948630198049941
:10582000086205B07047000085B0049003910498A9
:10583000016A21F0100101620498006A0190049845
:1058400040680090049880690290029820F4E0403B
:105850000290029820F44070029003980068029928
:1058600041EA00200290019820F020000190039866
:105870008068019941EA0010019004980021C4F267
:105880000101884208D0FFE7049840F20041C4F2C9
:10589000010188420FD1FFE7019820F080000190BC
:1058A0000398C068019941EA00100190019820F026
:1058B00040000190FFE704980021C4F201018842F2
:1058C00008D0FFE7049840F20041C4F20101884289
:1058D00015D1FFE7009820F480600090009820F434
:1058E0000060009003984069009941EA80000090B0
:1058F00003988069009941EA80000090FFE70098D2
:105900000499486002980499886103984068049952
:10591000886301980499086205B0704785B00490C7
:1059200003910498016A21F4807101620498006A6D
:1059300001900498406800900498C0690290029811
:1059400020F070000290029820F00300029003986B
:105950000068029908430290019820F400700190B9
:1059600003988068019941EA002001900498002181
:10597000C4F20101884208D0FFE7049840F20041D8
:10598000C4F2010188420FD1FFE7019820F40060C2
:1059900001900398C068019941EA002001900198A4
:1059A00020F480600190FFE704980021C4F2010117
:1059B000884208D0FFE7049840F20041C4F2010198
:1059C000884215D1FFE7009820F48050009000989D
:1059D00020F40050009003984069009941EA0010BB
:1059E000009003988069009941EA00100090FFE759
:1059F00000980499486002980499C8610398406827
:105A00000499C86301980499086205B070470000C2
:105A100085B0049003910498016A21F480510162D9
:105A20000498006A01900498406800900498C06946
:105A30000290029820F4E0400290029820F4407016
:105A4000029003980068029941EA002002900198B0
:105A500020F40050019003988068019941EA0030D9
:105A6000019004980021C4F20101884208D0FFE7A8
:105A7000049840F20041C4F2010188420BD1FFE7D3
:105A8000009820F48040009003984069009941EA12
:105A900080100090FFE700980499486002980499EC
:105AA000C8610398406804990864019804990862E1
:105AB00005B0704785B00490039102920498006A83
:105AC00000900498016A21F0010101620498806944
:105AD0000190019820F0F00001900298019941EAAC
:105AE00000100190009820F00A000090039800999F
:105AF000084300900198049988610098049908620D
:105B000005B0704785B00490039102920498016A31
:105B100021F0100101620498806901900498006AE4
:105B20000090019820F4704001900298019941EA98
:105B300000300190009820F0A00000900398009998
:105B400041EA001000900198049988610098049936
:105B5000086205B07047000080B582B001900198DE
:105B6000806B009000980021C1850098C184009846
:105B7000FDF73CFD02B080BD80B584B003900020ED
:105B800002900398806B0190019800684069C0B250
:105B9000C0090290019890F8390021280BD1FFE745
:105BA0000298002807D0FFE701980021C1840198DE
:105BB00000F082F8FFE7019800684069C0F38010A8
:105BC0000290019890F83A0022280BD1FFE7029842
:105BD000002807D0FFE701980021C185019800F057
:105BE00043F8FFE70198C16B41F01001C1630198D0
:105BF000FDF7FCFC04B080BD80B582B00190019837
:105C0000806B0090019800680068C00500281AD4D5
:105C1000FFE700980021C18500980068C16821F461
:105C20008071C16000980068416921F00101416103
:105C300000980068416921F04001416100982021ED
:105C400080F83A10FFE70098FDF77CFF02B080BDB6
:105C500080B582B001900198806B00900098FDF7AC
:105C600075FF02B080BD000081B000900098006810
:105C7000C16821F49071C16000980068416921F009
:105C8000010141610098202180F83A1001B070476D
:105C900080B582B0019001980068C16821F0400190
:105CA000C1600198202180F839100198FDF752FF5A
:105CB000002002B080BD000081B000900098006814
:105CC000C16821F0C001C1600098202180F839101E
:105CD00001B0704780B584B00390039800680068F5
:105CE00000F010000021B1EB101F5BD0FFE7FFE7D1
:105CF00000200290039800680068029003980068F2
:105D0000406802900298FFE70398FDF71FFC039993
:105D100040F68402C2F200028A4234D1FFE740F228
:105D2000E440C2F2000000684068C0F1100040F694
:105D30000B11C2F20001087008780E281BDCFFE787
:105D400040F60B10C2F20000027840F2C441C2F2E9
:105D5000000140F2D443C2F20003019008460091D2
:105D60001946FAF75EFA01990A780023DDF800C0B7
:105D70000CF8023006E040F60B10C2F200000021E1
:105D80000170FFE7FFE7FFE70398002180F8381074
:105D9000FFE7039840F2D441C2F200011022FDF760
:105DA00043FEFFE704B080BD80B584B00290029846
:105DB00090F83A00222869D1FFE702988068B0F590
:105DC000805F20D1FFE70298806A01900298006905
:105DD00000280CD1FFE70298006840686FF35F204D
:105DE000019908800298816A023181620AE0029872
:105DF00000684068C0B2019908800298816A013148
:105E00008162FFE719E002980069002809D1FFE7E5
:105E100002980068406802998A6A531C8B6210706D
:105E20000AE002980068406800F07F0002998A6AE0
:105E3000531C8B621070FFE7FFE70298C18D013998
:105E4000C185080400281DD1FFE702980068C168D9
:105E500021F02001C16002980068C16821F48071BE
:105E6000C16002980068416921F001014161029816
:105E7000202180F83A100298FDF764FE00208DF88A
:105E80000F0007E000208DF80F0003E002208DF8DE
:105E90000F00FFE79DF80F0004B080BD80B58CB007
:105EA0000B900B980068006920F440500B990A6829
:105EB000C968084310610B98816802694369C06929
:105EC0001143194308430A900B980068C06849F2CF
:105ED0000C6188430A9908430B990968C8600B98BC
:105EE0000068406920F440700B990A68896908438A
:105EF00050610B98C069B0F5004F77D1FFE70B9860
:105F0000006841F20001C4F20101884209D0FFE7B4
:105F10000B98006841F20041C4F20101884232D17D
:105F2000FFE7FBF735FC099009981921A0FB010157
:105F30000B9A136852684FEA420CD20F08926246DD
:105F4000DDF820C007936346FAF73AF948F21F518B
:105F5000C5F2EB11A0FB01235B094FEA031C4FF0D4
:105F6000640E03FB1E00322303EBC000A0FB010103
:105F7000F82303EA51130CEB4303C1F34211194414
:105F8000079B996031E0FBF7F1FB09900998192113
:105F9000A0FB01010B9A136852684FEA420CD20F22
:105FA00006926246DDF818C005936346FAF708F9D1
:105FB00048F21F51C5F2EB11A0FB01235B094FEA28
:105FC000031C4FF0640E03FB1E00322303EBC000E2
:105FD000A0FB0101F82303EA51130CEB4303C1F3C7
:105FE00042111944059B9960FFE776E00B98006821
:105FF00041F20001C4F20101884209D0FFE70B9889
:10600000006841F20041C4F20101884232D1FFE749
:10601000FBF7BEFB099009981921A0FB01010B9A1F
:10602000136852684FEA820C920F04926246DDF8C0
:1060300010C003936346FAF7C3F848F21F51C5F244
:10604000EB11A0FB01235B094FF0640C03FB1C0068
:106050004FF0320C0CEB0010A0FB01014FF0F00CE4
:106060000CEA511C0CEB0313C1F343111944039BBD
:10607000996031E0FBF77AFB099009981921A0FBA0
:1060800001010B9A136852684FEA820C920F029238
:106090006246DDF808C001936346FAF791F848F2CA
:1060A0001F51C5F2EB11A0FB01235B094FF0640CFB
:1060B00003FB1C004FF0320C0CEB0010A0FB0101A5
:1060C0004FF0F00C0CEA511C0CEB0313C1F343111D
:1060D0001944019B9960FFE7FFE70CB080BD000009
:1060E00083B00190019890F83900212842D1FFE750
:1060F00001988068B0F5805F1AD1FFE70198006AC7
:106100000090009800886FF35F200199096848604B
:1061100001980069002805D1FFE70198016A023162
:10612000016204E00198016A01310162FFE708E0C1
:106130000198016A4A1C026208780199096848605E
:10614000FFE70198C18C0139C184080400280DD1F2
:10615000FFE701980068C16821F08001C1600198E3
:106160000068C16841F04001C160FFE700208DF880
:106170000B0003E002208DF80B00FFE79DF80B00F9
:1061800003B0704780B582B040F68400C2F20000D0
:106190000190FDF72FFA0198FFF79CFD02B080BD3A
:1061A000FFE7FEE781B001468DF803009DF903008B
:1061B00000280FD4FFE79DF9030000F01F01012222
:1061C00002FA01F140094EF20012CEF2000242F84A
:1061D0002010FFE701B070474EF60C50CEF20000E1
:1061E0000068C0F30220704782B002468DF80700B5
:1061F00000919DF9070000280AD4FFE700980001EC
:106200009DF907104EF20042CEF2000288540BE0D6
:10621000009800019DF8071001F00F014EF614528E
:10622000CEF200028854FFE702B0704783B00290BC
:10623000029800F0070000904EF60C50CEF20000DD
:106240000168019101994FF6FF02114001910199F6
:10625000009A41EA02210022C0F2FA521143019150
:106260000199016003B0704740F28450C2F200000F
:10627000006840F63401416340F2C450C2F20000AD
:10628000006840F69801416340F20460C2F20000E9
:1062900001684FF416624A6300684FF41671816317
:1062A00040F24460C2F2000000684FF4AF61416305
:1062B00040F28460C2F20000006840F24C41416349
:1062C0007047000040F24460C2F20000006840F6EF
:1062D0004C11416340F28450C2F2000000684FF458
:1062E000FA71416340F2C450C2F20000006840F20B
:1062F0001452426340F20460C2F20000026851632B
:10630000006840F6C411816340F28460C2F200006C
:10631000006840F24C4141637047000080B582B094
:1063200000F0B0F840F6B8300190FAF7B7FD00F091
:10633000D5F80198FAF7B2FD00F0FEF802B080BD82
:1063400080B582B000F026F940F6B8300190FAF737
:10635000A5FD00F03FF80198FAF7A0FD00F066F8FF
:1063600002B080BD80B588B040F28450C2F2000017
:1063700000210791FCF79EFE40F2C451C2F20001D9
:10638000069008460799FCF795FE40F20461C2F2B8
:10639000000105900846079A04911146FCF78AFE11
:1063A0000421049A03901046FCF784FE40F24461F5
:1063B000C2F20001029008460799FCF77BFE40F20A
:1063C0008461C2F20001019008460799FCF772FE51
:1063D00008B080BD40F28450C2F20000006840F670
:1063E000C411416340F2C450C2F2000000684FF48F
:1063F0007A72426340F20460C2F2000002684FF415
:10640000FA7353630068816340F24460C2F2000093
:1064100000684FF41661416340F28460C2F20000EC
:1064200000684FF4AF6141637047000040F2845050
:10643000C2F20000006840F6C411416340F2C4504B
:10644000C2F20000006840F21452426340F204605D
:10645000C2F2000002684FF4FA735363006881636C
:1064600040F24460C2F2000000684FF416614163DC
:1064700040F28460C2F2000000684FF4AF614163F3
:106480007047000040F28450C2F2000000684FF4F0
:10649000FA71416340F2C450C2F2000000684FF448
:1064A0007A72426340F20460C2F2000002685163F3
:1064B000006840F6C411816340F24460C2F20000FB
:1064C000006840F67E11416340F28460C2F2000031
:1064D00000684FF4AF6141637047000040F28450A0
:1064E000C2F20000006840F2DC51416340F2C45047
:1064F000C2F2000000684FF47A71416340F2046018
:10650000C2F2000001684FF4FA724A63006840F674
:10651000C411816340F24460C2F20000006840F69A
:106520007E11416340F28460C2F2000000684FF4C3
:10653000AF6141637047000040F28450C2F2000036
:10654000006840F2DC51416340F2C450C2F20000E6
:10655000006840F21451416340F20460C2F200004E
:1065600001684FF4FA724A63006840F6C41181630F
:1065700040F24460C2F2000000684FF416614163CB
:1065800040F28460C2F2000000684FF4AF614163E2
:106590007047000040F28450C2F20000006840F2F0
:1065A000DC51416340F2C450C2F2000000684FF475
:1065B0007A71416340F20460C2F2000001684FF456
:1065C000FA724A63006840F6C411816340F2446085
:1065D000C2F2000000684FF41661416340F284602B
:1065E000C2F2000000684FF4AF61416370470000E1
:1065F00080B584B0002003900290FAF7CBFE0190A2
:10660000FEF7E2FEFDF76EFCFDF74CFCFDF78EFF9A
:10661000FDF7CCFFFEF70CF8FEF7B0F9FDF7C6FE6C
:10662000FEF748F8FEF7E8F8FEF786F8FEF7B4F84C
:10663000FEF7C2F9FDF708FDFDF756FDFDF7A4FDD5
:10664000FDF714FEFDF762FEFEF7D6FAFAF778F8CA
:1066500000F032F8FFF786FEFEF718FC47F6DA6224
:10666000C0F60002102302980299FEF76FFD4FF466
:106670007A70FAF713FC6846029901607F223F2383
:106680000846FEF7BFFBF9F7FFFEFFE740F60B10E9
:10669000C2F20000007801280DDBFFE740F2C440A1
:1066A000C2F20000F9F714FE40F60B10C2F200002F
:1066B00000210170FFE7E9E780B540F68400C2F2EF
:1066C00000000168CA6842F01002CA6040F2D4417A
:1066D000C2F200011022FDF7A7F980BD02E008C850
:1066E000121F08C1002AFAD170477047002001E04C
:1066F00001C1121F002AFBD17047000000000000FA
:10670000000001020304060708090000000001025E
:10671000030400061016000610160000000000001A
:10672000000000000000000000003F4000000000EA
:106730000000000030004000300040000000090070
:106740000BC03D000BC03D00090018C024407FE095
:10675000224031800000180024C01B000D80324010
:10676000018003801C4027401C800740004010002F
:1067700060000000000000000000000000000000B9
:106780001F80204040200000402020401F8000004B
:106790000000090006001F80060009000000040038
:1067A00004003F80040004000000001000600000AE
:1067B00000000000000004000400040004000400C5
:1067C0000000000000400000000000000000002069
:1067D00001C006003800400000001F80204020401B
:1067E00020401F800000000010403FC0004000001B
:1067F000000018C0214022402440184000001080B2
:106800002040244024401B80000002000D001100A5
:106810003FC0014000003C802440244024402380AD
:1068200000001F80244024403440038000003000DA
:10683000200027C03800200000001B802440244096
:1068400024401B8000001C0022C0224022401F80E8
:1068500000000000000008400000000000000000F0
:1068600000000460000000000000000004000A00B6
:1068700011002080404009000900090009000900BA
:10688000000000004040208011000A0004001800B1
:10689000200023402400180000001F8020402740D3
:1068A00029401F400000004007C039000F0001C010
:1068B000004020403FC0244024401B8000001F8037
:1068C0002040204020403080000020403FC0204039
:1068D00020401F80000020403FC024402E4030C098
:1068E000000020403FC024402E00300000000F0078
:1068F0001080204022403380020020403FC004002E
:1069000004003FC02040204020403FC020402040A5
:1069100000000060202020203FC0200020002040F8
:106920003FC024400B0030C0204020403FC02040EA
:106930000040004000C03FC03C0003C03C003FC0DE
:10694000000020403FC00C4023003FC020001F80BB
:106950002040204020401F80000020403FC02440B5
:106960002400180000001F802140214020E01FA0CB
:10697000000020403FC02440260019C0004018C03D
:1069800024402440224031800000300020403FC09D
:1069900020403000000020003F80004000403F8049
:1069A000200020003E0001C0070038002000380011
:1069B00007C03C0007C038000000204039C0060076
:1069C00039C0204000002000384007C03840200077
:1069D0000000304021C02640384020C000000000A8
:1069E00000007FE0402040200000000070000C000C
:1069F0000380004000000000402040207FE00000B5
:106A000000000000200040002000000000000010F6
:106A100000100010001000100010000000004000E6
:106A2000000000000000000002800540054003C097
:106A3000004020003FC004400440038000000000EC
:106A4000038004400440064000000000038004402E
:106A500024403FC000400000038005400540034043
:106A60000000000004401FC024402440200000001B
:106A700002E0055005500650042020403FC004406D
:106A8000040003C000400000044027C00040000094
:106A9000000000100010041027E00000000020405B
:106AA0003FC00140070004C00440204020403FC0D8
:106AB00000400040000007C0040007C0040003C0FD
:106AC0000000044007C00440040003C00040000070
:106AD00003800440044003800000041007F00450C9
:106AE000044003800000000003800440045007F0CD
:106AF0000010044007C00240040004000000000031
:106B000006400540054004C00000000004001F804E
:106B1000044000400000040007800040044007C01B
:106B200000400400070004C00180060004000600C5
:106B300001C0070001C006000000044006C00100BB
:106B400006C0044000000410071004E001800600A5
:106B500004000000044005C006400440000000009E
:106B6000000004007BE04020000000000000000066
:106B7000FFF000000000000040207BE00400000067
:106B80000000400080004000200020004000000085
:106B900000000000000000000000000000000000F5
:106BA000000000001FCC000C0000000000000000EE
:106BB0000800300060000800300060000000022083
:106BC00003FC1E20022003FC1E2002200000000007
:106BD0000E1811043FFF10840C78000000000F0015
:106BE00010840F3800C007781884007800000078FF
:106BF0000F8410C411240E9800E4008400080800DB
:106C000068007000000000000000000000000000AC
:106C10000000000007E018182004400200000000F7
:106C200040022004181807E00000000000000240A5
:106C3000024001800FF0018002400240000000800D
:106C4000008000800FF800800080008000000001BC
:106C5000000D000E00000000000000000000000019
:106C600000800080008000800080008000800000A4
:106C7000000C000C000000000000000000000000FC
:106C800000060018006001800600180020000000C7
:106C900007F0080810041004080807F000000000BE
:106CA000080408041FFC00040004000000000000A9
:106CB0000E0C10141024104411840E0C000000005F
:106CC0000C1810041104110412880C70000000004C
:106CD00000E00320042408241FFC0024000000001E
:106CE0001F98108411041104108810700000000017
:106CF00007F00888110411041888007000000000D3
:106D00001C00100010FC13001C001000000000000C
:106D10000E3811441084108411440E380000000015
:106D20000700088C10441044088807F00000000099
:106D300000000000030C030C000000000000000035
:106D4000000000010106000000000000000000003B
:106D500000800140022004100808100400000220F6
:106D60000220022002200220022002200000000057
:106D700010040808041002200140008000000000F8
:106D80000E001200100C106C10800F00000003E0C9
:106D90000C1813E4142417C4082807D000000004BA
:106DA000003C03C41C40074000E4001C0004100425
:106DB0001FFC1104110411040E880070000003E090
:106DC0000C1810041004100410081C10000010040B
:106DD0001FFC100410041004080807F00000100441
:106DE0001FFC1104110417C410040818000010043B
:106DF0001FFC1104110017C010000800000003E080
:106E00000C181004100410441C78004000001004FA
:106E10001FFC10840080008010841FFC1004000000
:106E2000100410041FFC10041004000000000003F4
:106E30000001100110011FFE1000100000001004DE
:106E40001FFC110403801464181C100400001004BB
:106E50001FFC1004000400040004000C00001004D7
:106E60001FFC1F0000FC1F001FFC1004000010048A
:106E70001FFC0C04030000E010181FFC100007F0BA
:106E80000808100410041004080807F0000010049B
:106E90001FFC10841080108010800F00000007F08D
:106EA000081810241024101C080A07F2000010040F
:106EB0001FFC1104110011C011300E0C0004000061
:106EC0000E1C11041084108410441C38000018009B
:106ED000100010041FFC1004100018000000100027
:106EE0001FF810040004000410041FF81000100024
:106EF0001E0011E0001C007013801C0010001FC059
:106F0000103C00E01F0000E0103C1FC00000100417
:106F1000180C163401C001C01634180C10041000EF
:106F20001C00130400FC13041C00100000000804E3
:106F3000101C1064108413041C04101800000000BE
:106F4000000000007FFE40024002400200000000FE
:106F500030000C0003800060001C000300000000F3
:106F60004002400240027FFE0000000000000000DE
:106F70000000200040004000400020000000000110
:106F800000010001000100010001000100010000FA
:106F90004000400020000000000000000000000051
:106FA0000098012401440144014400FC0004100045
:106FB0001FFC00880104010400880070000000002C
:106FC0000070008801040104010400880000000032
:106FD000007000880104010411081FFC0004000077
:106FE00000F8014401440144014400C800000000CD
:106FF000010401040FFC1104110411001800000029
:1070000000D601290129012901C901060000100447
:107010001FFC008401000100010400FC00040000CA
:107020000104190419FC0004000400000000000021
:10703000000300010101190119FE00000000100405
:107040001FFC0024004001B4010C010400000000FA
:10705000100410041FFC00040004000000000104E0
:1070600001FC0104010001FC0104010000FC010419
:1070700001FC008401000100010400FC0004000088
:1070800000F8010401040104010400F800000101FA
:1070900001FF008501040104008800700000000069
:1070A0000070008801040104010501FF00010104D2
:1070B000010401FC008401040100018000000000C3
:1070C00000CC0124012401240124019800000000C7
:1070D0000100010007F801040104000000000100A4
:1070E00001F8000400040004010801FC0004010090
:1070F00001800170000C001001600180010001F0AE
:10710000010C003001C00030010C01F00100000052
:107110000104018C00740170018C01040000010164
:1071200001810171000E0018016001800100000062
:107130000184010C013401440184010C00000000B1
:1071400000000000000001003EFC40024002000080
:10715000000000000000FFFF000000000000000031
:10716000400240023EFC0100000000000000000060
:1071700060008000800040004000200020000000EF
:1071800000000000000000000000000000000000FF
:1071900000000000000000000000000000000000EF
:1071A00000000000000000000000000000000000DF
:1071B000000F80380FFE380F8038000000000000FC
:1071C00000000000000000000000000001000006B8
:1071D00000000C00003800003100000600000C0028
:1071E0000038000030000000000000000000618056
:1071F0000067F807F980006180006180006180000D
:1072000061800067F807F9800061800000000000DD
:107210000000000001C0E003E0F006300804180898
:107220001FFFFE040E080787F00381E00000000046
:10723000000001F000060C00040408060C7001F9BF
:10724000C0000E00003BE000EC18070808040C1812
:107250000003E00000000001E00007F003F818045C
:107260001C0804170807E1D003C0E00023B0003C6D
:1072700008002008000010000000000000010000CD
:107280003100003200001C0000000000000000007F
:1072900000000000000000000000000000000000EE
:1072A00000000000000000000000000000007F005F
:1072B00001FFC00780F00C0018100004200002003D
:1072C00000000000002000021000040C00180780DD
:1072D000F001FFC0007F000000000000000000007F
:1072E00000000000000000000000420000660000F6
:1072F0006600003C0000180003FFC0001800003CBE
:107300000000660000660000420000000000080067
:1073100000080000080000080000080001FFC0008D
:107320000800000800000800000800000800000035
:107330000000000100003100003200001C000000CD
:10734000000000000000000000000000000000003D
:10735000000000000000080000080000080000080D
:1073600000000800000800000800000800000800F5
:1073700000080000000000000000000000003800CD
:10738000003800003800000000000000000000008D
:1073900000000000000000000000000000000006E7
:1073A00000001C000070000180000E00003800008A
:1073B000C0000700001C00003000000000000000BA
:1073C00000007F8001FFE0038070060018040008C1
:1073D00004000806001803807001FFE0007F8000B1
:1073E000000000000000000001000801000801008A
:1073F0000803FFF807FFF800000800000800000875
:1074000000000000000000000001C03802C0580465
:107410000098040118040218040418061C1803F844
:107420001801E0F800000000000000000001C0E0CA
:1074300003C0F0040008040808040808061808033C
:10744000F41801E7F00001E0000000000000000077
:1074500000000300000D0000110000610000810821
:1074600003010807FFF80FFFF800010800010800FA
:1074700000000000000000E007FCD006080806102D
:1074800008061008061008061838060FF00607C090
:10749000000000000000000000003F8001FFE0034A
:1074A0008430020818041008041008041008071893
:1074B00010030FF00007C0000000000000000000F3
:1074C00003C0000700000600000600F80607F806E3
:1074D000180006E0000700000600000000000000A1
:1074E0000001E1E003F7F00634100418080418085E
:1074F000040C08040C0806161803F3F001C1E000A0
:10750000000000000000F80003FC3003063804020D
:10751000080402080402080404100308F001FFC074
:10752000007F0000000000000000000000000000DC
:107530000000000000007038007038007038000053
:10754000000000000000000000000000000000003B
:1075500000000000000000000000301A00301C0095
:10756000000000000000000000000000000000001B
:10757000000000000008000014000022000041008C
:107580000080800100400200200400100800080074
:107590000000000000002100002100002100002167
:1075A0000000210000210000210000210000210036
:1075B0000021000000000000000000000800080496
:1075C00000100200200100400080800041000022E5
:1075D0000000140000080000000000000003C000CC
:1075E00004C000040000080038080F3808083808F4
:1075F00010000C300007E00003C000000000000095
:1076000000003F8000FFE0038070020F10067088CA
:1076100004C088048308047F8802C090030120000E
:10762000FE400000080000180001F8003E0801C2FA
:107630000007020007E20000FE00001FC80001F87A
:1076400000003800000804000807FFF807FFF804EE
:10765000080804080804080804080806180803F4C1
:107660001801E7F00001E0000000000000003F808A
:1076700001FFE00380700200180400080400080401
:1076800000080400100600200780C000000004006D
:107690000807FFF807FFF8040008040008040008C2
:1076A00004001802001003807001FFE0007F8000DA
:1076B000000004000807FFF807FFF80408080408A2
:1076C00008040808040808043E0804000806001816
:1076D00001006000000004000807FFF807FFF8043D
:1076E0000808040800040800040800043E0006001E
:1076F00000060000018000000000000000003F8044
:1077000001FFE0038070060018040008040208046A
:1077100002080203F00783F00002000002000400E8
:107720000807FFF807FFF804080800080000080031
:1077300000080000080004080807FFF807FFF80425
:107740000008000000000000040008040008040015
:107750000807FFF807FFF804000804000804000801
:10776000000000000000000000000006000007000C
:10777000000104000104000104000307FFFE07FFED
:10778000FC04000004000004000004000807FFF8E7
:1077900007FFF8040C08001800003E0004C780052D
:1077A00003C80600F80400380400180000080400AC
:1077B0000807FFF807FFF8040008000008000008A9
:1077C0000000080000080000080000180000600029
:1077D000000004000807FFF807800807FC00007F8E
:1077E000C00003F80007C000780007800807FFF812
:1077F00007FFF804000804000807FFF80700080363
:10780000C00000E000003800001E0000070000017A
:10781000C00400F007FFF8040000000000007F80B3
:1078200001FFE00380700600180400080400080649
:10783000001803003001FFE0007F8000000004001A
:107840000807FFF807FFF804040804040004040014
:10785000040400040400060C0003F80001F000001A
:107860000000000000007F8001FFE0038070060040
:10787000880400880400C806003C03003E01FFE6BF
:10788000007F8400000004000807FFF807FFF804E9
:107890000808040800040C00040F00040BC00610C4
:1078A000F003F03801E00800000800000001E0F8F3
:1078B00003F030063010041808041808040C0804FB
:1078C0000C080206180207F00781E00000000180A2
:1078D0000006000004000004000004000807FFF890
:1078E00007FFF8040008040000040000060000017F
:1078F000800004000007FFE007FFF004001800000C
:10790000080000080000080000080000080400103B
:1079100007FFE004000004000006000007E0000785
:10792000FE00041FE00001F80000380001E0043E02
:107930000007C00006000004000004000007E0008B
:1079400007FFC0041FF80007C007F80007FF800406
:107950003FF80007C004F800070000040000000022
:107960000004000806001807C07805F1C8003E00B2
:10797000001F800463E80780F80600180400080070
:10798000000004000006000007800007E008047CF7
:1079900008001FF80007F800180804E008070000B6
:1079A0000600000400000000000100080600380482
:1079B00000F80403E8040F08047C0805F00807C079
:1079C000080700180400600000000000000000002C
:1079D0000000000000000000003FFFFE2000022029
:1079E000000220000220000220000200000000002F
:1079F0000000000008000007000000C00000380080
:107A00000006000001C000003000000E0000010070
:107A10000000000000000000200002200002200002
:107A2000022000022000023FFFFE000000000000D4
:107A3000000000000000000000000000000000083E
:107A40000000100000300000200000300000100096
:107A5000000800000000000000000000010000011C
:107A60000000010000010000010000010000010011
:107A70000001000001000001000001000001000001
:107A800000000000000000200000200000100000A6
:107A900010000000000000000000000000000000D6
:107AA00000000000000000F00019F8001B18002280
:107AB00008002608002408002410003FF8001FF8E2
:107AC00000000800001800000004000007FFF80F85
:107AD000FFF00018180010080020080020080030EF
:107AE00018001FF0000FC00000000000000007C0D9
:107AF000001FF000183000200800200800200800B7
:107B00003C08001C100000600000000000000000A5
:107B1000000007C0001FF0003818002008002008EF
:107B200000200804101007FFF80FFFF000001000FD
:107B300000000000000000000007C0001FF000125D
:107B400030002218002208002208003208001E100F
:107B5000000E2000000000000000200000200800AF
:107B6000200801FFF803FFF806200804200804207D
:107B70000807200003000000000000000000000EC5
:107B8000000E6E001FF30031B10020B10020B100E3
:107B90003191001F13002E1E00200E003000000047
:107BA0000004000807FFF80FFFF80010080020008D
:107BB000002000002008003FF8001FF80000080027
:107BC0000000000000000000002008002008002045
:107BD00008063FF8063FF80000080000080000080B
:107BE0000000000000000000000000000000030092
:107BF0000003002001002001002003063FFE063F95
:107C0000FC0000000000000000000000000400086C
:107C100007FFF80FFFF8000188000300002FC000E5
:107C200038F800203800200800000800000000009C
:107C30000000000004000804000804000807FFF822
:107C40000FFFF80000080000080000080000000016
:107C50000000002008003FF8003FF8001008002056
:107C600000003FF8003FF8001008002000003FF837
:107C7000003FF8000008000000002008003FF80066
:107C80003FF8001008001000002000002008003F0E
:107C9000F8001FF80000080000000000000007C006
:107CA000000FF00018300030080020080020080005
:107CB0003008001830000FF00007C000000000007E
:107CC00000002001003FFF003FFF001011002009CD
:107CD000002008002008003038001FF0000FC0000E
:107CE00000000000000007C0001FF000381800204E
:107CF00008002008002009001011001FFF003FFFAE
:107D000000000100000000200800200800200800FA
:107D10003FF8003FF8000808001008002008002085
:107D200000003000003000000000000000000000F3
:107D3000000C78001E1800330800230800210800FA
:107D400021880021980030F0003860000000000019
:107D50000000200000200000200000FFF003FFF8DA
:107D6000002008002008002008000030000000006B
:107D70000000000000002000003FF0007FF800003D
:107D800018000008000008002010003FF8007FF0F5
:107D90000000100000000000000020000030000083
:107DA0003C00003F800023F00000780000700023BA
:107DB00080003C00003000002000002000003C005B
:107DC000003FE00023F80000E0002700003E000034
:107DD0003FE00021F80001E0003E0000200000002C
:107DE00000002008002008003838003E6800278086
:107DF0000003C8002CF800383800201800200800C4
:107E00000000000000002000003003003C01003FA3
:107E1000830023EC000070002380003C0000200061
:107E200000200000000000000000000000380800F2
:107E300020380020F80023E8002F88003E08003892
:107E40000800201800007000000000000000000082
:107E50000000000000000000000008000014001FE7
:107E6000F7FC3000062000020000000000000000C7
:107E70000000000000000000000000000000000002
:107E8000FFFFFF00000000000000000000000000F5
:107E900000000000000000002000023000061FF774
:107EA000FC001400000800000000000000000000BA
:107EB000000000000000000000180000600000400A
:107EC0000000400000200000100000080000040036
:107ED000000400000C0000100000746573740000C2
:107EE000007F00080000002040000000DC66000861
:107EF000407F000840000020D00C0000EC66000825
:107F00000000803F0000803F0000803F0000803F75
:107F100000002041000020410000204100002041DD
:107F20000024F400FFFFFFFFFFFF0000FFFF000041
:107F3000FFFFFFFF01000000100000000000000034
:040000050800018965
:00000001FF
